{
  "_format": "hh-sol-artifact-1",
  "contractName": "AutoRenewSubscriptionLicense",
  "sourceName": "contracts/AutoRenewTokenSubscriptionLicense.sol",
  "abi": [
    {
      "inputs": [
        {
          "internalType": "string",
          "name": "companyName",
          "type": "string"
        },
        {
          "internalType": "string",
          "name": "licenseName",
          "type": "string"
        },
        {
          "internalType": "string",
          "name": "licenseAgreementUrl",
          "type": "string"
        },
        {
          "internalType": "address",
          "name": "tokenAddress",
          "type": "address"
        },
        {
          "internalType": "uint256",
          "name": "licensePrice",
          "type": "uint256"
        },
        {
          "internalType": "uint256",
          "name": "subscriptionPeriodSecond",
          "type": "uint256"
        },
        {
          "internalType": "uint256",
          "name": "gasPrice",
          "type": "uint256"
        }
      ],
      "stateMutability": "nonpayable",
      "type": "constructor"
    },
    {
      "inputs": [],
      "name": "ERC721Metadata__URI_QueryFor_NonExistentToken",
      "type": "error"
    },
    {
      "anonymous": false,
      "inputs": [
        {
          "indexed": true,
          "internalType": "address",
          "name": "owner",
          "type": "address"
        },
        {
          "indexed": true,
          "internalType": "address",
          "name": "approved",
          "type": "address"
        },
        {
          "indexed": true,
          "internalType": "uint256",
          "name": "tokenId",
          "type": "uint256"
        }
      ],
      "name": "Approval",
      "type": "event"
    },
    {
      "anonymous": false,
      "inputs": [
        {
          "indexed": true,
          "internalType": "address",
          "name": "owner",
          "type": "address"
        },
        {
          "indexed": true,
          "internalType": "address",
          "name": "operator",
          "type": "address"
        },
        {
          "indexed": false,
          "internalType": "bool",
          "name": "approved",
          "type": "bool"
        }
      ],
      "name": "ApprovalForAll",
      "type": "event"
    },
    {
      "anonymous": false,
      "inputs": [
        {
          "indexed": true,
          "internalType": "uint256",
          "name": "tokenId",
          "type": "uint256"
        },
        {
          "indexed": false,
          "internalType": "uint256",
          "name": "licensePrice",
          "type": "uint256"
        }
      ],
      "name": "NewSubscriptionToken",
      "type": "event"
    },
    {
      "anonymous": false,
      "inputs": [
        {
          "indexed": true,
          "internalType": "address",
          "name": "previousOwner",
          "type": "address"
        },
        {
          "indexed": true,
          "internalType": "address",
          "name": "newOwner",
          "type": "address"
        }
      ],
      "name": "OwnershipTransferred",
      "type": "event"
    },
    {
      "anonymous": false,
      "inputs": [
        {
          "indexed": true,
          "internalType": "address",
          "name": "from",
          "type": "address"
        },
        {
          "indexed": true,
          "internalType": "address",
          "name": "to",
          "type": "address"
        },
        {
          "indexed": true,
          "internalType": "uint256",
          "name": "tokenId",
          "type": "uint256"
        }
      ],
      "name": "Transfer",
      "type": "event"
    },
    {
      "anonymous": false,
      "inputs": [
        {
          "indexed": true,
          "internalType": "uint256",
          "name": "tokenId",
          "type": "uint256"
        },
        {
          "indexed": false,
          "internalType": "uint256",
          "name": "licensePrice",
          "type": "uint256"
        }
      ],
      "name": "UpdatedSubscriptionToken",
      "type": "event"
    },
    {
      "inputs": [
        {
          "internalType": "uint256",
          "name": "tokenId",
          "type": "uint256"
        }
      ],
      "name": "allowTransfer",
      "outputs": [],
      "stateMutability": "nonpayable",
      "type": "function"
    },
    {
      "inputs": [
        {
          "internalType": "address",
          "name": "to",
          "type": "address"
        },
        {
          "internalType": "uint256",
          "name": "tokenId",
          "type": "uint256"
        }
      ],
      "name": "approve",
      "outputs": [],
      "stateMutability": "nonpayable",
      "type": "function"
    },
    {
      "inputs": [
        {
          "internalType": "address",
          "name": "owner",
          "type": "address"
        }
      ],
      "name": "balanceOf",
      "outputs": [
        {
          "internalType": "uint256",
          "name": "",
          "type": "uint256"
        }
      ],
      "stateMutability": "view",
      "type": "function"
    },
    {
      "inputs": [],
      "name": "buyToken",
      "outputs": [],
      "stateMutability": "nonpayable",
      "type": "function"
    },
    {
      "inputs": [
        {
          "internalType": "uint256",
          "name": "tokenId",
          "type": "uint256"
        }
      ],
      "name": "cancelSubscription",
      "outputs": [],
      "stateMutability": "nonpayable",
      "type": "function"
    },
    {
      "inputs": [
        {
          "internalType": "uint256",
          "name": "",
          "type": "uint256"
        }
      ],
      "name": "expirationTimestamp",
      "outputs": [
        {
          "internalType": "uint256",
          "name": "",
          "type": "uint256"
        }
      ],
      "stateMutability": "view",
      "type": "function"
    },
    {
      "inputs": [
        {
          "internalType": "uint256",
          "name": "tokenId",
          "type": "uint256"
        }
      ],
      "name": "getApproved",
      "outputs": [
        {
          "internalType": "address",
          "name": "",
          "type": "address"
        }
      ],
      "stateMutability": "view",
      "type": "function"
    },
    {
      "inputs": [
        {
          "internalType": "uint256",
          "name": "tokenId",
          "type": "uint256"
        }
      ],
      "name": "getExpirationTime",
      "outputs": [
        {
          "internalType": "uint256",
          "name": "",
          "type": "uint256"
        }
      ],
      "stateMutability": "view",
      "type": "function"
    },
    {
      "inputs": [],
      "name": "getGasPrice",
      "outputs": [
        {
          "internalType": "uint256",
          "name": "",
          "type": "uint256"
        }
      ],
      "stateMutability": "view",
      "type": "function"
    },
    {
      "inputs": [],
      "name": "getLicensePrice",
      "outputs": [
        {
          "internalType": "uint256",
          "name": "",
          "type": "uint256"
        }
      ],
      "stateMutability": "view",
      "type": "function"
    },
    {
      "inputs": [],
      "name": "getSubscritptionTimePeriod",
      "outputs": [
        {
          "internalType": "uint256",
          "name": "",
          "type": "uint256"
        }
      ],
      "stateMutability": "view",
      "type": "function"
    },
    {
      "inputs": [],
      "name": "getTokenCounter",
      "outputs": [
        {
          "internalType": "uint256",
          "name": "",
          "type": "uint256"
        }
      ],
      "stateMutability": "view",
      "type": "function"
    },
    {
      "inputs": [
        {
          "internalType": "address",
          "name": "owner",
          "type": "address"
        },
        {
          "internalType": "address",
          "name": "operator",
          "type": "address"
        }
      ],
      "name": "isApprovedForAll",
      "outputs": [
        {
          "internalType": "bool",
          "name": "",
          "type": "bool"
        }
      ],
      "stateMutability": "view",
      "type": "function"
    },
    {
      "inputs": [
        {
          "internalType": "uint256",
          "name": "tokenId",
          "type": "uint256"
        }
      ],
      "name": "isSubscriptionActive",
      "outputs": [
        {
          "internalType": "bool",
          "name": "",
          "type": "bool"
        }
      ],
      "stateMutability": "view",
      "type": "function"
    },
    {
      "inputs": [
        {
          "internalType": "uint256",
          "name": "tokenId",
          "type": "uint256"
        }
      ],
      "name": "isTransferAllowed",
      "outputs": [
        {
          "internalType": "bool",
          "name": "",
          "type": "bool"
        }
      ],
      "stateMutability": "view",
      "type": "function"
    },
    {
      "inputs": [
        {
          "internalType": "address",
          "name": "customer",
          "type": "address"
        }
      ],
      "name": "mintToken",
      "outputs": [],
      "stateMutability": "nonpayable",
      "type": "function"
    },
    {
      "inputs": [],
      "name": "name",
      "outputs": [
        {
          "internalType": "string",
          "name": "",
          "type": "string"
        }
      ],
      "stateMutability": "view",
      "type": "function"
    },
    {
      "inputs": [],
      "name": "owner",
      "outputs": [
        {
          "internalType": "address",
          "name": "",
          "type": "address"
        }
      ],
      "stateMutability": "view",
      "type": "function"
    },
    {
      "inputs": [
        {
          "internalType": "uint256",
          "name": "tokenId",
          "type": "uint256"
        }
      ],
      "name": "ownerOf",
      "outputs": [
        {
          "internalType": "address",
          "name": "",
          "type": "address"
        }
      ],
      "stateMutability": "view",
      "type": "function"
    },
    {
      "inputs": [
        {
          "internalType": "uint256",
          "name": "tokenId",
          "type": "uint256"
        }
      ],
      "name": "reactivateSubscription",
      "outputs": [],
      "stateMutability": "nonpayable",
      "type": "function"
    },
    {
      "inputs": [],
      "name": "renounceOwnership",
      "outputs": [],
      "stateMutability": "nonpayable",
      "type": "function"
    },
    {
      "inputs": [
        {
          "internalType": "uint256",
          "name": "tokenId",
          "type": "uint256"
        }
      ],
      "name": "restrictTransfer",
      "outputs": [],
      "stateMutability": "nonpayable",
      "type": "function"
    },
    {
      "inputs": [
        {
          "internalType": "address",
          "name": "from",
          "type": "address"
        },
        {
          "internalType": "address",
          "name": "to",
          "type": "address"
        },
        {
          "internalType": "uint256",
          "name": "tokenId",
          "type": "uint256"
        }
      ],
      "name": "safeTransferFrom",
      "outputs": [],
      "stateMutability": "nonpayable",
      "type": "function"
    },
    {
      "inputs": [
        {
          "internalType": "address",
          "name": "from",
          "type": "address"
        },
        {
          "internalType": "address",
          "name": "to",
          "type": "address"
        },
        {
          "internalType": "uint256",
          "name": "tokenId",
          "type": "uint256"
        },
        {
          "internalType": "bytes",
          "name": "_data",
          "type": "bytes"
        }
      ],
      "name": "safeTransferFrom",
      "outputs": [],
      "stateMutability": "nonpayable",
      "type": "function"
    },
    {
      "inputs": [
        {
          "internalType": "address",
          "name": "operator",
          "type": "address"
        },
        {
          "internalType": "bool",
          "name": "approved",
          "type": "bool"
        }
      ],
      "name": "setApprovalForAll",
      "outputs": [],
      "stateMutability": "nonpayable",
      "type": "function"
    },
    {
      "inputs": [
        {
          "internalType": "uint256",
          "name": "",
          "type": "uint256"
        }
      ],
      "name": "startTimestamp",
      "outputs": [
        {
          "internalType": "uint256",
          "name": "",
          "type": "uint256"
        }
      ],
      "stateMutability": "view",
      "type": "function"
    },
    {
      "inputs": [
        {
          "internalType": "bytes4",
          "name": "interfaceId",
          "type": "bytes4"
        }
      ],
      "name": "supportsInterface",
      "outputs": [
        {
          "internalType": "bool",
          "name": "",
          "type": "bool"
        }
      ],
      "stateMutability": "view",
      "type": "function"
    },
    {
      "inputs": [],
      "name": "symbol",
      "outputs": [
        {
          "internalType": "string",
          "name": "",
          "type": "string"
        }
      ],
      "stateMutability": "view",
      "type": "function"
    },
    {
      "inputs": [
        {
          "internalType": "uint256",
          "name": "tokenId",
          "type": "uint256"
        }
      ],
      "name": "tokenURI",
      "outputs": [
        {
          "internalType": "string",
          "name": "",
          "type": "string"
        }
      ],
      "stateMutability": "view",
      "type": "function"
    },
    {
      "inputs": [
        {
          "internalType": "address",
          "name": "from",
          "type": "address"
        },
        {
          "internalType": "address",
          "name": "to",
          "type": "address"
        },
        {
          "internalType": "uint256",
          "name": "tokenId",
          "type": "uint256"
        }
      ],
      "name": "transferFrom",
      "outputs": [],
      "stateMutability": "nonpayable",
      "type": "function"
    },
    {
      "inputs": [
        {
          "internalType": "address",
          "name": "newOwner",
          "type": "address"
        }
      ],
      "name": "transferOwnership",
      "outputs": [],
      "stateMutability": "nonpayable",
      "type": "function"
    },
    {
      "inputs": [
        {
          "internalType": "uint256",
          "name": "",
          "type": "uint256"
        }
      ],
      "name": "transferingAllowed",
      "outputs": [
        {
          "internalType": "uint256",
          "name": "",
          "type": "uint256"
        }
      ],
      "stateMutability": "view",
      "type": "function"
    },
    {
      "inputs": [
        {
          "internalType": "uint256",
          "name": "newPrice",
          "type": "uint256"
        }
      ],
      "name": "updateLicensePrice",
      "outputs": [],
      "stateMutability": "nonpayable",
      "type": "function"
    },
    {
      "inputs": [
        {
          "internalType": "uint256",
          "name": "tokenId",
          "type": "uint256"
        }
      ],
      "name": "updateSubscription",
      "outputs": [],
      "stateMutability": "nonpayable",
      "type": "function"
    },
    {
      "inputs": [],
      "name": "withdraw",
      "outputs": [],
      "stateMutability": "nonpayable",
      "type": "function"
    }
  ],
  "bytecode": "0x60806040523480156200001157600080fd5b506040516200346e3803806200346e83398101604081905262000034916200026f565b6040518060400160405280601081526020016f536f667477617265204c6963656e736560801b8152506040518060400160405280600381526020016253484b60e81b81525081600090816200008a9190620003d0565b506001620000998282620003d0565b505050620000b6620000b06200015460201b60201c565b62000158565b60006007556008839055600a620000ce8882620003d0565b50600c620000dd8782620003d0565b5060408051808201909152600c81526b29bab139b1b934b83a34b7b760a11b6020820152600b90620001109082620003d0565b50600e829055600f620001248682620003d0565b506009555050600d80546001600160a01b0319166001600160a01b0392909216919091179055506200049c915050565b3390565b600680546001600160a01b038381166001600160a01b0319831681179093556040519116919082907f8be0079c531659141344cd1fd0a4f28419497f9722a3daafe3b4186f6b6457e090600090a35050565b634e487b7160e01b600052604160045260246000fd5b600082601f830112620001d257600080fd5b81516001600160401b0380821115620001ef57620001ef620001aa565b604051601f8301601f19908116603f011681019082821181831017156200021a576200021a620001aa565b816040528381526020925086838588010111156200023757600080fd5b600091505b838210156200025b57858201830151818301840152908201906200023c565b600093810190920192909252949350505050565b600080600080600080600060e0888a0312156200028b57600080fd5b87516001600160401b0380821115620002a357600080fd5b620002b18b838c01620001c0565b985060208a0151915080821115620002c857600080fd5b620002d68b838c01620001c0565b975060408a0151915080821115620002ed57600080fd5b50620002fc8a828b01620001c0565b60608a015190965090506001600160a01b03811681146200031c57600080fd5b809450506080880151925060a0880151915060c0880151905092959891949750929550565b600181811c908216806200035657607f821691505b6020821081036200037757634e487b7160e01b600052602260045260246000fd5b50919050565b601f821115620003cb57600081815260208120601f850160051c81016020861015620003a65750805b601f850160051c820191505b81811015620003c757828155600101620003b2565b5050505b505050565b81516001600160401b03811115620003ec57620003ec620001aa565b6200040481620003fd845462000341565b846200037d565b602080601f8311600181146200043c5760008415620004235750858301515b600019600386901b1c1916600185901b178555620003c7565b600085815260208120601f198616915b828110156200046d578886015182559484019460019091019084016200044c565b50858210156200048c5787850151600019600388901b60f8161c191681555b5050505050600190811b01905550565b612fc280620004ac6000396000f3fe608060405234801561001057600080fd5b50600436106102115760003560e01c806370a0823111610125578063a22cb465116100ad578063b88d4fde1161007c578063b88d4fde14610485578063c87b56dd14610498578063d16da4dd146104ab578063e985e9c5146104be578063f2fde38b146104d157600080fd5b8063a22cb4651461043f578063a482171914610452578063b61609151461045a578063b6f0aaa51461047d57600080fd5b806381a36eec116100f457806381a36eec146103d3578063858684b1146103e65780638bde494d146104065780638da5cb5b1461042657806395d89b411461043757600080fd5b806370a0823114610385578063715018a61461039857806372fdc40e146103a05780637b5321a4146103c057600080fd5b806323b872dd116101a857806342842e0e1161017757806342842e0e1461032c578063455259cb1461033f57806357e2c0f5146103475780636352211e1461036a5780636e02007d1461037d57600080fd5b806323b872dd146102de57806326182077146102f157806338baa7d0146103045780633ccfd60b1461032457600080fd5b8063095ea7b3116101e4578063095ea7b3146102935780631af62808146102a657806321235083146102b857806322aafbff146102cb57600080fd5b806301173a741461021657806301ffc9a71461022b57806306fdde0314610253578063081812fc14610268575b600080fd5b61022961022436600461272c565b6104e4565b005b61023e610239366004612764565b6105b3565b60405190151581526020015b60405180910390f35b61025b610605565b60405161024a91906127d1565b61027b6102763660046127e4565b610697565b6040516001600160a01b03909116815260200161024a565b6102296102a13660046127fd565b6106be565b6008545b60405190815260200161024a565b6102296102c63660046127e4565b6107d8565b6102296102d93660046127e4565b6108bc565b6102296102ec366004612827565b6108d5565b6102296102ff3660046127e4565b610982565b6102aa6103123660046127e4565b60106020526000908152604090205481565b610229610d33565b61022961033a366004612827565b610f19565b6009546102aa565b61023e6103553660046127e4565b60009081526011602052604090205442111590565b61027b6103783660046127e4565b610f34565b6007546102aa565b6102aa61039336600461272c565b610f94565b61022961101a565b6102aa6103ae3660046127e4565b60116020526000908152604090205481565b6102296103ce3660046127e4565b61102e565b6102296103e13660046127e4565b61108b565b6102aa6103f43660046127e4565b60009081526011602052604090205490565b6102aa6104143660046127e4565b60126020526000908152604090205481565b6006546001600160a01b031661027b565b61025b6113fe565b61022961044d366004612871565b61140d565b610229611418565b61023e6104683660046127e4565b60009081526012602052604090205460011490565b600e546102aa565b6102296104933660046128be565b61171b565b61025b6104a63660046127e4565b61183b565b6102296104b93660046127e4565b61194f565b61023e6104cc36600461299a565b61196b565b6102296104df36600461272c565b611999565b6104ec611a12565b600780546000908152601260205260409020600190555461050e908290611a6c565b60075460009081526010602052604090204290819055600e54610530916129e3565b60078054600090815260116020908152604080832094909455825482526012905291822091909155546105649060016129e3565b6007819055610575906001906129f6565b7f96ac082a4fc7ad66e45bc1e865693b779f6e8ec0e0df3f84c6b1be78af8ad4876008546040516105a891815260200190565b60405180910390a250565b60006001600160e01b031982166380ac58cd60e01b14806105e457506001600160e01b03198216635b5e139f60e01b145b806105ff57506301ffc9a760e01b6001600160e01b03198316145b92915050565b60606000805461061490612a09565b80601f016020809104026020016040519081016040528092919081815260200182805461064090612a09565b801561068d5780601f106106625761010080835404028352916020019161068d565b820191906000526020600020905b81548152906001019060200180831161067057829003601f168201915b5050505050905090565b60006106a282611a86565b506000908152600460205260409020546001600160a01b031690565b60006106c982610f34565b9050806001600160a01b0316836001600160a01b03160361073b5760405162461bcd60e51b815260206004820152602160248201527f4552433732313a20617070726f76616c20746f2063757272656e74206f776e656044820152603960f91b60648201526084015b60405180910390fd5b336001600160a01b03821614806107575750610757813361196b565b6107c95760405162461bcd60e51b815260206004820152603d60248201527f4552433732313a20617070726f76652063616c6c6572206973206e6f7420746f60448201527f6b656e206f776e6572206f7220617070726f76656420666f7220616c6c0000006064820152608401610732565b6107d38383611ad6565b505050565b6107e181610f34565b6001600160a01b0316336001600160a01b0316146108505760405162461bcd60e51b815260206004820152602660248201527f4f6e6c79206f776e65722063616e2063616e63656c207468652073756273637260448201526534b83a34b7b760d11b6064820152608401610732565b6000818152601160205260409020546108ab5760405162461bcd60e51b815260206004820181905260248201527f537562736372697074696f6e20697320616c72656164792063616e63656c65646044820152606401610732565b600090815260116020526040812055565b6108c4611a12565b600090815260126020526040812055565b6108df3382611b44565b6108fb5760405162461bcd60e51b815260040161073290612a43565b61090481611ba3565b61094c5760405162461bcd60e51b815260206004820152601960248201527822a9219b99189d103737b732bc34b9ba32b73a103a37b5b2b760391b6044820152606401610732565b6109598383836001611bc0565b610964600082611ad6565b61096f838383611c3d565b6000908152601260205260408120555050565b61098b81610f34565b6001600160a01b0316336001600160a01b031614610a075760405162461bcd60e51b815260206004820152603360248201527f4f6e6c79206f776e6572206f6620746f6b656e2063616e2072656163746976616044820152723a32903a34329039bab139b1b934b83a34b7b760691b6064820152608401610732565b600081815260116020526040902054421015610a655760405162461bcd60e51b815260206004820152601c60248201527f537562736372697074696f6e206973207374696c6c20616374697665000000006044820152606401610732565b600d546000906001600160a01b031663dd62ed3e610a8284610f34565b6040516001600160e01b031960e084901b1681526001600160a01b039091166004820152306024820152604401602060405180830381865afa158015610acc573d6000803e3d6000fd5b505050506040513d601f19601f82011682018060405250810190610af09190612a94565b600d549091506000906001600160a01b03166370a08231610b1085610f34565b6040516001600160e01b031960e084901b1681526001600160a01b039091166004820152602401602060405180830381865afa158015610b54573d6000803e3d6000fd5b505050506040513d601f19601f82011682018060405250810190610b789190612a94565b90506008548210158015610b8e57506008548110155b610baa5760405162461bcd60e51b815260040161073290612aad565b600e54610bb790426129e3565b60008481526011602052604080822092909255600d5491516370a0823160e01b815230600482015290916001600160a01b0316906370a0823190602401602060405180830381865afa158015610c11573d6000803e3d6000fd5b505050506040513d601f19601f82011682018060405250810190610c359190612a94565b9050610c5b610c4385610f34565b600854600d546001600160a01b031691903090611dae565b600d546040516370a0823160e01b81523060048201526001600160a01b03909116906370a0823190602401602060405180830381865afa158015610ca3573d6000803e3d6000fd5b505050506040513d601f19601f82011682018060405250810190610cc79190612a94565b600854610cd490836129e3565b14610cf15760405162461bcd60e51b815260040161073290612b0a565b837faab14031e88faeea4213dcd9a96061711625f43a506936ed2ae574ea9350173d600854604051610d2591815260200190565b60405180910390a250505050565b610d3b611a12565b600d546040516370a0823160e01b81523060048201526000916001600160a01b0316906370a0823190602401602060405180830381865afa158015610d84573d6000803e3d6000fd5b505050506040513d601f19601f82011682018060405250810190610da89190612a94565b600d549091506000906001600160a01b03166370a08231610dd16006546001600160a01b031690565b6040516001600160e01b031960e084901b1681526001600160a01b039091166004820152602401602060405180830381865afa158015610e15573d6000803e3d6000fd5b505050506040513d601f19601f82011682018060405250810190610e399190612a94565b9050610e63610e506006546001600160a01b031690565b600d546001600160a01b03169084611e19565b600d546001600160a01b03166370a08231610e866006546001600160a01b031690565b6040516001600160e01b031960e084901b1681526001600160a01b039091166004820152602401602060405180830381865afa158015610eca573d6000803e3d6000fd5b505050506040513d601f19601f82011682018060405250810190610eee9190612a94565b610ef883836129e3565b14610f155760405162461bcd60e51b815260040161073290612b0a565b5050565b6107d38383836040518060200160405280600081525061171b565b6000818152600260205260408120546001600160a01b0316806105ff5760405162461bcd60e51b8152602060048201526018602482015277115490cdcc8c4e881a5b9d985b1a59081d1bdad95b88125160421b6044820152606401610732565b60006001600160a01b038216610ffe5760405162461bcd60e51b815260206004820152602960248201527f4552433732313a2061646472657373207a65726f206973206e6f7420612076616044820152683634b21037bbb732b960b91b6064820152608401610732565b506001600160a01b031660009081526003602052604090205490565b611022611a12565b61102c6000611e49565b565b611036611a12565b600081116110865760405162461bcd60e51b815260206004820152601f60248201527f5072696365206d7573742062652067726561746572207468616e207a65726f006044820152606401610732565b600855565b6000818152601160205260409020546110e65760405162461bcd60e51b815260206004820152601860248201527f537562736372697074696f6e2069732063616e63656c656400000000000000006044820152606401610732565b6000818152601160205260409020544210156111445760405162461bcd60e51b815260206004820152601c60248201527f537562736372697074696f6e206973207374696c6c20616374697665000000006044820152606401610732565b600d546000906001600160a01b031663dd62ed3e61116184610f34565b6040516001600160e01b031960e084901b1681526001600160a01b039091166004820152306024820152604401602060405180830381865afa1580156111ab573d6000803e3d6000fd5b505050506040513d601f19601f820116820180604052508101906111cf9190612a94565b600d549091506000906001600160a01b03166370a082316111ef85610f34565b6040516001600160e01b031960e084901b1681526001600160a01b039091166004820152602401602060405180830381865afa158015611233573d6000803e3d6000fd5b505050506040513d601f19601f820116820180604052508101906112579190612a94565b905060095460085461126991906129e3565b8210158015611287575060095460085461128391906129e3565b8110155b6112a35760405162461bcd60e51b815260040161073290612aad565b600e546112b090426129e3565b60008481526011602052604080822092909255600d5491516370a0823160e01b815230600482015290916001600160a01b0316906370a0823190602401602060405180830381865afa15801561130a573d6000803e3d6000fd5b505050506040513d601f19601f8201168201806040525081019061132e9190612a94565b905061133c610c4385610f34565b600d546040516370a0823160e01b81523060048201526001600160a01b03909116906370a0823190602401602060405180830381865afa158015611384573d6000803e3d6000fd5b505050506040513d601f19601f820116820180604052508101906113a89190612a94565b6008546113b590836129e3565b146113d25760405162461bcd60e51b815260040161073290612b0a565b60095415610cf157610cf16113e685610f34565b600954600d546001600160a01b031691903390611dae565b60606001805461061490612a09565b610f15338383611e9b565b600d54604051636eb1769f60e11b81523360048201523060248201526000916001600160a01b03169063dd62ed3e90604401602060405180830381865afa158015611467573d6000803e3d6000fd5b505050506040513d601f19601f8201168201806040525081019061148b9190612a94565b600d546040516370a0823160e01b81523360048201529192506000916001600160a01b03909116906370a0823190602401602060405180830381865afa1580156114d9573d6000803e3d6000fd5b505050506040513d601f19601f820116820180604052508101906114fd9190612a94565b9050600854821015801561151357506008548110155b61152f5760405162461bcd60e51b815260040161073290612aad565b6007805460009081526012602052604090206001905554611551903390611a6c565b60075460009081526010602052604090204290819055600e54611573916129e3565b60078054600090815260116020908152604080832094909455915481526012909152818120819055600d5491516370a0823160e01b815230600482015290916001600160a01b0316906370a0823190602401602060405180830381865afa1580156115e2573d6000803e3d6000fd5b505050506040513d601f19601f820116820180604052508101906116069190612a94565b600854600d54919250611626916001600160a01b03169033903090611dae565b600d546040516370a0823160e01b81523060048201526001600160a01b03909116906370a0823190602401602060405180830381865afa15801561166e573d6000803e3d6000fd5b505050506040513d601f19601f820116820180604052508101906116929190612a94565b60085461169f90836129e3565b146116bc5760405162461bcd60e51b815260040161073290612b0a565b6007546116ca9060016129e3565b60078190556116db906001906129f6565b7f96ac082a4fc7ad66e45bc1e865693b779f6e8ec0e0df3f84c6b1be78af8ad48760085460405161170e91815260200190565b60405180910390a2505050565b6117253383611b44565b6117415760405162461bcd60e51b815260040161073290612a43565b61174a82611ba3565b6117925760405162461bcd60e51b815260206004820152601960248201527822a9219b99189d103737b732bc34b9ba32b73a103a37b5b2b760391b6044820152606401610732565b6000828152601260205260409020546001146118035760405162461bcd60e51b815260206004820152602a60248201527f4552433732313a20746f6b656e206973206e6f7420617070726f76656420666f60448201526939103a3930b739b332b960b11b6064820152608401610732565b6118108484846001611bc0565b61181b600083611ad6565b61182784848484611f69565b506000908152601260205260408120555050565b606061184682611ba3565b611863576040516336faf6d760e11b815260040160405180910390fd5b60408051808201909152601d81527f646174613a6170706c69636174696f6e2f6a736f6e3b6261736536342c0000006020820152611928600a600c600f600b600d60009054906101000a90046001600160a01b03166118c3600854611f9c565b60008a8152601060205260409020546118db90611f9c565b60008b8152601160205260409020546118f390611f9c565b6118fc8c611f9c565b60405160200161191499989796959493929190612c09565b60405160208183030381529060405261202f565b604051602001611939929190612dba565b6040516020818303038152906040529050919050565b611957611a12565b600090815260126020526040902060019055565b6001600160a01b03918216600090815260056020908152604080832093909416825291909152205460ff1690565b6119a1611a12565b6001600160a01b038116611a065760405162461bcd60e51b815260206004820152602660248201527f4f776e61626c653a206e6577206f776e657220697320746865207a65726f206160448201526564647265737360d01b6064820152608401610732565b611a0f81611e49565b50565b6006546001600160a01b0316331461102c5760405162461bcd60e51b815260206004820181905260248201527f4f776e61626c653a2063616c6c6572206973206e6f7420746865206f776e65726044820152606401610732565b610f15828260405180602001604052806000815250612194565b611a8f81611ba3565b611a0f5760405162461bcd60e51b8152602060048201526018602482015277115490cdcc8c4e881a5b9d985b1a59081d1bdad95b88125160421b6044820152606401610732565b600081815260046020526040902080546001600160a01b0319166001600160a01b0384169081179091558190611b0b82610f34565b6001600160a01b03167f8c5be1e5ebec7d5bd14f71427d1e84f3dd0314c0f7b2291e5b200ac8c7c3b92560405160405180910390a45050565b600080611b5083610f34565b9050806001600160a01b0316846001600160a01b03161480611b775750611b77818561196b565b80611b9b5750836001600160a01b0316611b9084610697565b6001600160a01b0316145b949350505050565b6000908152600260205260409020546001600160a01b0316151590565b600082815260126020526040902054600114611c375760405162461bcd60e51b815260206004820152603060248201527f5072696f7220417070726f76616c206e656564656420666f72207472616e736660448201526f6572206f662074686520746f6b656e7360801b6064820152608401610732565b50505050565b826001600160a01b0316611c5082610f34565b6001600160a01b031614611c765760405162461bcd60e51b815260040161073290612de9565b6001600160a01b038216611cd85760405162461bcd60e51b8152602060048201526024808201527f4552433732313a207472616e7366657220746f20746865207a65726f206164646044820152637265737360e01b6064820152608401610732565b611ce58383836001611bc0565b826001600160a01b0316611cf882610f34565b6001600160a01b031614611d1e5760405162461bcd60e51b815260040161073290612de9565b600081815260046020908152604080832080546001600160a01b03199081169091556001600160a01b0387811680865260038552838620805460001901905590871680865283862080546001019055868652600290945282852080549092168417909155905184937fddf252ad1be2c89b69c2b068fc378daa952ba7f163c4a11628f55a4df523b3ef91a4505050565b6040516001600160a01b0380851660248301528316604482015260648101829052611c379085906323b872dd60e01b906084015b60408051601f198184030181529190526020810180516001600160e01b03166001600160e01b0319909316929092179091526121c7565b6040516001600160a01b0383166024820152604481018290526107d390849063a9059cbb60e01b90606401611de2565b600680546001600160a01b038381166001600160a01b0319831681179093556040519116919082907f8be0079c531659141344cd1fd0a4f28419497f9722a3daafe3b4186f6b6457e090600090a35050565b816001600160a01b0316836001600160a01b031603611efc5760405162461bcd60e51b815260206004820152601960248201527f4552433732313a20617070726f766520746f2063616c6c6572000000000000006044820152606401610732565b6001600160a01b03838116600081815260056020908152604080832094871680845294825291829020805460ff191686151590811790915591519182527f17307eab39ab6107e8899845ad3d59bd9653f200f220920489ca2b5937696c31910160405180910390a3505050565b611f74848484611c3d565b611f8084848484612299565b611c375760405162461bcd60e51b815260040161073290612e2e565b60606000611fa98361239a565b600101905060008167ffffffffffffffff811115611fc957611fc96128a8565b6040519080825280601f01601f191660200182016040528015611ff3576020820181803683370190505b5090508181016020015b600019016f181899199a1a9b1b9c1cb0b131b232b360811b600a86061a8153600a8504945084611ffd57509392505050565b6060815160000361204e57505060408051602081019091526000815290565b6000604051806060016040528060408152602001612f4d604091399050600060038451600261207d91906129e3565b6120879190612e80565b612092906004612ea2565b905060006120a18260206129e3565b67ffffffffffffffff8111156120b9576120b96128a8565b6040519080825280601f01601f1916602001820160405280156120e3576020820181803683370190505b509050818152600183018586518101602084015b8183101561214f576003830192508251603f8160121c168501518253600182019150603f81600c1c168501518253600182019150603f8160061c168501518253600182019150603f81168501518253506001016120f7565b600389510660018114612169576002811461217a57612186565b613d3d60f01b600119830152612186565b603d60f81b6000198301525b509398975050505050505050565b61219e8383612472565b6121ab6000848484612299565b6107d35760405162461bcd60e51b815260040161073290612e2e565b600061221c826040518060400160405280602081526020017f5361666545524332303a206c6f772d6c6576656c2063616c6c206661696c6564815250856001600160a01b03166125ed9092919063ffffffff16565b8051909150156107d3578080602001905181019061223a9190612eb9565b6107d35760405162461bcd60e51b815260206004820152602a60248201527f5361666545524332303a204552433230206f7065726174696f6e20646964206e6044820152691bdd081cdd58d8d9595960b21b6064820152608401610732565b60006001600160a01b0384163b1561238f57604051630a85bd0160e11b81526001600160a01b0385169063150b7a02906122dd903390899088908890600401612ed6565b6020604051808303816000875af1925050508015612318575060408051601f3d908101601f1916820190925261231591810190612f13565b60015b612375573d808015612346576040519150601f19603f3d011682016040523d82523d6000602084013e61234b565b606091505b50805160000361236d5760405162461bcd60e51b815260040161073290612e2e565b805181602001fd5b6001600160e01b031916630a85bd0160e11b149050611b9b565b506001949350505050565b60008072184f03e93ff9f4daa797ed6e38ed64bf6a1f0160401b83106123d95772184f03e93ff9f4daa797ed6e38ed64bf6a1f0160401b830492506040015b6d04ee2d6d415b85acef81000000008310612405576d04ee2d6d415b85acef8100000000830492506020015b662386f26fc10000831061242357662386f26fc10000830492506010015b6305f5e100831061243b576305f5e100830492506008015b612710831061244f57612710830492506004015b60648310612461576064830492506002015b600a83106105ff5760010192915050565b6001600160a01b0382166124c85760405162461bcd60e51b815260206004820181905260248201527f4552433732313a206d696e7420746f20746865207a65726f20616464726573736044820152606401610732565b6124d181611ba3565b1561251e5760405162461bcd60e51b815260206004820152601c60248201527f4552433732313a20746f6b656e20616c7265616479206d696e746564000000006044820152606401610732565b61252c600083836001611bc0565b61253581611ba3565b156125825760405162461bcd60e51b815260206004820152601c60248201527f4552433732313a20746f6b656e20616c7265616479206d696e746564000000006044820152606401610732565b6001600160a01b038216600081815260036020908152604080832080546001019055848352600290915280822080546001600160a01b0319168417905551839291907fddf252ad1be2c89b69c2b068fc378daa952ba7f163c4a11628f55a4df523b3ef908290a45050565b6060611b9b848460008585600080866001600160a01b031685876040516126149190612f30565b60006040518083038185875af1925050503d8060008114612651576040519150601f19603f3d011682016040523d82523d6000602084013e612656565b606091505b509150915061266787838387612672565b979650505050505050565b606083156126e15782516000036126da576001600160a01b0385163b6126da5760405162461bcd60e51b815260206004820152601d60248201527f416464726573733a2063616c6c20746f206e6f6e2d636f6e74726163740000006044820152606401610732565b5081611b9b565b611b9b83838151156126f65781518083602001fd5b8060405162461bcd60e51b815260040161073291906127d1565b80356001600160a01b038116811461272757600080fd5b919050565b60006020828403121561273e57600080fd5b61274782612710565b9392505050565b6001600160e01b031981168114611a0f57600080fd5b60006020828403121561277657600080fd5b81356127478161274e565b60005b8381101561279c578181015183820152602001612784565b50506000910152565b600081518084526127bd816020860160208601612781565b601f01601f19169290920160200192915050565b60208152600061274760208301846127a5565b6000602082840312156127f657600080fd5b5035919050565b6000806040838503121561281057600080fd5b61281983612710565b946020939093013593505050565b60008060006060848603121561283c57600080fd5b61284584612710565b925061285360208501612710565b9150604084013590509250925092565b8015158114611a0f57600080fd5b6000806040838503121561288457600080fd5b61288d83612710565b9150602083013561289d81612863565b809150509250929050565b634e487b7160e01b600052604160045260246000fd5b600080600080608085870312156128d457600080fd5b6128dd85612710565b93506128eb60208601612710565b925060408501359150606085013567ffffffffffffffff8082111561290f57600080fd5b818701915087601f83011261292357600080fd5b813581811115612935576129356128a8565b604051601f8201601f19908116603f0116810190838211818310171561295d5761295d6128a8565b816040528281528a602084870101111561297657600080fd5b82602086016020830137600060208483010152809550505050505092959194509250565b600080604083850312156129ad57600080fd5b6129b683612710565b91506129c460208401612710565b90509250929050565b634e487b7160e01b600052601160045260246000fd5b808201808211156105ff576105ff6129cd565b818103818111156105ff576105ff6129cd565b600181811c90821680612a1d57607f821691505b602082108103612a3d57634e487b7160e01b600052602260045260246000fd5b50919050565b60208082526031908201527f4552433732313a207472616e736665722063616c6c6572206973206e6f74206f6040820152701ddb995c881b9bdc88185c1c1c9bdd9959607a1b606082015260800190565b600060208284031215612aa657600080fd5b5051919050565b6020808252603c908201527f537562736372697074696f6e206973206e6f74207265616479206f72206e6f7460408201527f20656e6f7567682062616c616e6365206f7220616c6c6f77616e636500000000606082015260800190565b60208082526026908201527f45524332302042616c616e636520646964206e6f74206368616e676520636f72604082015265726563746c7960d01b606082015260800190565b8054600090600181811c9080831680612b6a57607f831692505b60208084108203612b8b57634e487b7160e01b600052602260045260246000fd5b818015612b9f5760018114612bb457612be1565b60ff1986168952841515850289019650612be1565b60008881526020902060005b86811015612bd95781548b820152908501908301612bc0565b505084890196505b50505050505092915050565b60008151612bff818560208601612781565b9290920192915050565b683d913730b6b2911d1160b91b81526000612c27600983018c612b50565b711116113634b1b2b739b2903730b6b2911d1160711b8152612c4c601282018c612b50565b90507f222c226c6963656e73652061677265656d656e742055726c223a2200000000008152612c7e601b82018b612b50565b711116113634b1b2b739b2902a3cb832911d1160711b81529050612ca5601282018a612b50565b7f222c227061796d656e7420746f6b656e2041646472657373223a2200000000008152606089901b6bffffffffffffffffffffffff1916601b8201526a111611383934b1b2911d1160a91b602f8201528751909150612d0b81603a840160208b01612781565b612da9612d9b612d95612d7c612d76612d4d612d47603a888a01017411161139ba30b93a103a34b6b2b9ba30b6b8111d1160591b815260150190565b8d612bed565b7f222c2265787069726174696f6e2074696d657374616d70223a220000000000008152601a0190565b8a612bed565b6c1116113a37b5b2b724a2111d1160991b8152600d0190565b87612bed565b61227d60f01b815260020190565b9d9c50505050505050505050505050565b60008351612dcc818460208801612781565b835190830190612de0818360208801612781565b01949350505050565b60208082526025908201527f4552433732313a207472616e736665722066726f6d20696e636f72726563742060408201526437bbb732b960d91b606082015260800190565b60208082526032908201527f4552433732313a207472616e7366657220746f206e6f6e20455243373231526560408201527131b2b4bb32b91034b6b83632b6b2b73a32b960711b606082015260800190565b600082612e9d57634e487b7160e01b600052601260045260246000fd5b500490565b80820281158282048414176105ff576105ff6129cd565b600060208284031215612ecb57600080fd5b815161274781612863565b6001600160a01b0385811682528416602082015260408101839052608060608201819052600090612f09908301846127a5565b9695505050505050565b600060208284031215612f2557600080fd5b81516127478161274e565b60008251612f42818460208701612781565b919091019291505056fe4142434445464748494a4b4c4d4e4f505152535455565758595a6162636465666768696a6b6c6d6e6f707172737475767778797a303132333435363738392b2fa26469706673582212207ac4505ab8731a1a8c5678424e4a35ba7a0e59273d003399fbaeb44e32aa66c664736f6c63430008110033",
  "linkReferences": {},
  "deployedLinkReferences": {}
}