{
  "_format": "hh-sol-artifact-1",
  "contractName": "FixedSubscriptionLicense",
  "sourceName": "contracts/FixedSubscription.sol",
  "abi": [
    {
      "inputs": [
        {
          "internalType": "string",
          "name": "companyName",
          "type": "string"
        },
        {
          "internalType": "string",
          "name": "licenseName",
          "type": "string"
        },
        {
          "internalType": "string",
          "name": "licenseAgreementUrl",
          "type": "string"
        },
        {
          "internalType": "uint256",
          "name": "licensePrice",
          "type": "uint256"
        },
        {
          "internalType": "uint256",
          "name": "subscriptionPeriodSecond",
          "type": "uint256"
        }
      ],
      "stateMutability": "nonpayable",
      "type": "constructor"
    },
    {
      "inputs": [],
      "name": "ERC721Metadata__URI_QueryFor_NonExistentToken",
      "type": "error"
    },
    {
      "inputs": [],
      "name": "SubscriptionLicense__NeedMoreETHSent",
      "type": "error"
    },
    {
      "inputs": [],
      "name": "SubscriptionLicense__TransferFailed",
      "type": "error"
    },
    {
      "anonymous": false,
      "inputs": [
        {
          "indexed": true,
          "internalType": "address",
          "name": "owner",
          "type": "address"
        },
        {
          "indexed": true,
          "internalType": "address",
          "name": "approved",
          "type": "address"
        },
        {
          "indexed": true,
          "internalType": "uint256",
          "name": "tokenId",
          "type": "uint256"
        }
      ],
      "name": "Approval",
      "type": "event"
    },
    {
      "anonymous": false,
      "inputs": [
        {
          "indexed": true,
          "internalType": "address",
          "name": "owner",
          "type": "address"
        },
        {
          "indexed": true,
          "internalType": "address",
          "name": "operator",
          "type": "address"
        },
        {
          "indexed": false,
          "internalType": "bool",
          "name": "approved",
          "type": "bool"
        }
      ],
      "name": "ApprovalForAll",
      "type": "event"
    },
    {
      "anonymous": false,
      "inputs": [
        {
          "indexed": true,
          "internalType": "uint256",
          "name": "tokenId",
          "type": "uint256"
        },
        {
          "indexed": false,
          "internalType": "uint256",
          "name": "licensePrice",
          "type": "uint256"
        }
      ],
      "name": "CreatedSubscriptionToken",
      "type": "event"
    },
    {
      "anonymous": false,
      "inputs": [
        {
          "indexed": true,
          "internalType": "address",
          "name": "previousOwner",
          "type": "address"
        },
        {
          "indexed": true,
          "internalType": "address",
          "name": "newOwner",
          "type": "address"
        }
      ],
      "name": "OwnershipTransferred",
      "type": "event"
    },
    {
      "anonymous": false,
      "inputs": [
        {
          "indexed": true,
          "internalType": "address",
          "name": "from",
          "type": "address"
        },
        {
          "indexed": true,
          "internalType": "address",
          "name": "to",
          "type": "address"
        },
        {
          "indexed": true,
          "internalType": "uint256",
          "name": "tokenId",
          "type": "uint256"
        }
      ],
      "name": "Transfer",
      "type": "event"
    },
    {
      "anonymous": false,
      "inputs": [
        {
          "indexed": true,
          "internalType": "uint256",
          "name": "tokenId",
          "type": "uint256"
        },
        {
          "indexed": false,
          "internalType": "uint256",
          "name": "licensePrice",
          "type": "uint256"
        }
      ],
      "name": "UpdatedSubscriptionToken",
      "type": "event"
    },
    {
      "inputs": [
        {
          "internalType": "uint256",
          "name": "tokenId",
          "type": "uint256"
        }
      ],
      "name": "allowTransfer",
      "outputs": [],
      "stateMutability": "nonpayable",
      "type": "function"
    },
    {
      "inputs": [
        {
          "internalType": "address",
          "name": "to",
          "type": "address"
        },
        {
          "internalType": "uint256",
          "name": "tokenId",
          "type": "uint256"
        }
      ],
      "name": "approve",
      "outputs": [],
      "stateMutability": "nonpayable",
      "type": "function"
    },
    {
      "inputs": [
        {
          "internalType": "address",
          "name": "owner",
          "type": "address"
        }
      ],
      "name": "balanceOf",
      "outputs": [
        {
          "internalType": "uint256",
          "name": "",
          "type": "uint256"
        }
      ],
      "stateMutability": "view",
      "type": "function"
    },
    {
      "inputs": [],
      "name": "buyToken",
      "outputs": [],
      "stateMutability": "payable",
      "type": "function"
    },
    {
      "inputs": [
        {
          "internalType": "uint256",
          "name": "tokenId",
          "type": "uint256"
        }
      ],
      "name": "cancelSubscription",
      "outputs": [],
      "stateMutability": "nonpayable",
      "type": "function"
    },
    {
      "inputs": [
        {
          "internalType": "uint256",
          "name": "",
          "type": "uint256"
        }
      ],
      "name": "expirationTimestamp",
      "outputs": [
        {
          "internalType": "uint256",
          "name": "",
          "type": "uint256"
        }
      ],
      "stateMutability": "view",
      "type": "function"
    },
    {
      "inputs": [
        {
          "internalType": "uint256",
          "name": "tokenId",
          "type": "uint256"
        }
      ],
      "name": "getApproved",
      "outputs": [
        {
          "internalType": "address",
          "name": "",
          "type": "address"
        }
      ],
      "stateMutability": "view",
      "type": "function"
    },
    {
      "inputs": [
        {
          "internalType": "uint256",
          "name": "tokenId",
          "type": "uint256"
        }
      ],
      "name": "getExpirationTime",
      "outputs": [
        {
          "internalType": "uint256",
          "name": "",
          "type": "uint256"
        }
      ],
      "stateMutability": "view",
      "type": "function"
    },
    {
      "inputs": [],
      "name": "getLicensePrice",
      "outputs": [
        {
          "internalType": "uint256",
          "name": "",
          "type": "uint256"
        }
      ],
      "stateMutability": "view",
      "type": "function"
    },
    {
      "inputs": [
        {
          "internalType": "uint256",
          "name": "tokenId",
          "type": "uint256"
        },
        {
          "internalType": "uint256",
          "name": "timestamp",
          "type": "uint256"
        }
      ],
      "name": "getRefundEligible",
      "outputs": [
        {
          "internalType": "bool",
          "name": "",
          "type": "bool"
        }
      ],
      "stateMutability": "view",
      "type": "function"
    },
    {
      "inputs": [],
      "name": "getSubscritptionTimePeriod",
      "outputs": [
        {
          "internalType": "uint256",
          "name": "",
          "type": "uint256"
        }
      ],
      "stateMutability": "view",
      "type": "function"
    },
    {
      "inputs": [],
      "name": "getTokenCounter",
      "outputs": [
        {
          "internalType": "uint256",
          "name": "",
          "type": "uint256"
        }
      ],
      "stateMutability": "view",
      "type": "function"
    },
    {
      "inputs": [
        {
          "internalType": "address",
          "name": "owner",
          "type": "address"
        },
        {
          "internalType": "address",
          "name": "operator",
          "type": "address"
        }
      ],
      "name": "isApprovedForAll",
      "outputs": [
        {
          "internalType": "bool",
          "name": "",
          "type": "bool"
        }
      ],
      "stateMutability": "view",
      "type": "function"
    },
    {
      "inputs": [
        {
          "internalType": "uint256",
          "name": "tokenId",
          "type": "uint256"
        }
      ],
      "name": "isSubscriptionActive",
      "outputs": [
        {
          "internalType": "bool",
          "name": "",
          "type": "bool"
        }
      ],
      "stateMutability": "view",
      "type": "function"
    },
    {
      "inputs": [
        {
          "internalType": "uint256",
          "name": "tokenId",
          "type": "uint256"
        }
      ],
      "name": "isTransferAllowed",
      "outputs": [
        {
          "internalType": "bool",
          "name": "",
          "type": "bool"
        }
      ],
      "stateMutability": "view",
      "type": "function"
    },
    {
      "inputs": [
        {
          "internalType": "address",
          "name": "customer",
          "type": "address"
        }
      ],
      "name": "mintToken",
      "outputs": [],
      "stateMutability": "nonpayable",
      "type": "function"
    },
    {
      "inputs": [],
      "name": "name",
      "outputs": [
        {
          "internalType": "string",
          "name": "",
          "type": "string"
        }
      ],
      "stateMutability": "view",
      "type": "function"
    },
    {
      "inputs": [],
      "name": "owner",
      "outputs": [
        {
          "internalType": "address",
          "name": "",
          "type": "address"
        }
      ],
      "stateMutability": "view",
      "type": "function"
    },
    {
      "inputs": [
        {
          "internalType": "uint256",
          "name": "tokenId",
          "type": "uint256"
        }
      ],
      "name": "ownerOf",
      "outputs": [
        {
          "internalType": "address",
          "name": "",
          "type": "address"
        }
      ],
      "stateMutability": "view",
      "type": "function"
    },
    {
      "inputs": [],
      "name": "renounceOwnership",
      "outputs": [],
      "stateMutability": "nonpayable",
      "type": "function"
    },
    {
      "inputs": [
        {
          "internalType": "uint256",
          "name": "tokenId",
          "type": "uint256"
        }
      ],
      "name": "restrictTransfer",
      "outputs": [],
      "stateMutability": "nonpayable",
      "type": "function"
    },
    {
      "inputs": [
        {
          "internalType": "address",
          "name": "from",
          "type": "address"
        },
        {
          "internalType": "address",
          "name": "to",
          "type": "address"
        },
        {
          "internalType": "uint256",
          "name": "tokenId",
          "type": "uint256"
        }
      ],
      "name": "safeTransferFrom",
      "outputs": [],
      "stateMutability": "nonpayable",
      "type": "function"
    },
    {
      "inputs": [
        {
          "internalType": "address",
          "name": "from",
          "type": "address"
        },
        {
          "internalType": "address",
          "name": "to",
          "type": "address"
        },
        {
          "internalType": "uint256",
          "name": "tokenId",
          "type": "uint256"
        },
        {
          "internalType": "bytes",
          "name": "_data",
          "type": "bytes"
        }
      ],
      "name": "safeTransferFrom",
      "outputs": [],
      "stateMutability": "nonpayable",
      "type": "function"
    },
    {
      "inputs": [
        {
          "internalType": "address",
          "name": "operator",
          "type": "address"
        },
        {
          "internalType": "bool",
          "name": "approved",
          "type": "bool"
        }
      ],
      "name": "setApprovalForAll",
      "outputs": [],
      "stateMutability": "nonpayable",
      "type": "function"
    },
    {
      "inputs": [
        {
          "internalType": "uint256",
          "name": "",
          "type": "uint256"
        }
      ],
      "name": "startTimestamp",
      "outputs": [
        {
          "internalType": "uint256",
          "name": "",
          "type": "uint256"
        }
      ],
      "stateMutability": "view",
      "type": "function"
    },
    {
      "inputs": [
        {
          "internalType": "bytes4",
          "name": "interfaceId",
          "type": "bytes4"
        }
      ],
      "name": "supportsInterface",
      "outputs": [
        {
          "internalType": "bool",
          "name": "",
          "type": "bool"
        }
      ],
      "stateMutability": "view",
      "type": "function"
    },
    {
      "inputs": [],
      "name": "symbol",
      "outputs": [
        {
          "internalType": "string",
          "name": "",
          "type": "string"
        }
      ],
      "stateMutability": "view",
      "type": "function"
    },
    {
      "inputs": [
        {
          "internalType": "uint256",
          "name": "tokenId",
          "type": "uint256"
        }
      ],
      "name": "tokenURI",
      "outputs": [
        {
          "internalType": "string",
          "name": "",
          "type": "string"
        }
      ],
      "stateMutability": "view",
      "type": "function"
    },
    {
      "inputs": [
        {
          "internalType": "address",
          "name": "from",
          "type": "address"
        },
        {
          "internalType": "address",
          "name": "to",
          "type": "address"
        },
        {
          "internalType": "uint256",
          "name": "tokenId",
          "type": "uint256"
        }
      ],
      "name": "transferFrom",
      "outputs": [],
      "stateMutability": "nonpayable",
      "type": "function"
    },
    {
      "inputs": [
        {
          "internalType": "address",
          "name": "newOwner",
          "type": "address"
        }
      ],
      "name": "transferOwnership",
      "outputs": [],
      "stateMutability": "nonpayable",
      "type": "function"
    },
    {
      "inputs": [
        {
          "internalType": "uint256",
          "name": "",
          "type": "uint256"
        }
      ],
      "name": "transferingAllowed",
      "outputs": [
        {
          "internalType": "uint256",
          "name": "",
          "type": "uint256"
        }
      ],
      "stateMutability": "view",
      "type": "function"
    },
    {
      "inputs": [
        {
          "internalType": "uint256",
          "name": "newPrice",
          "type": "uint256"
        }
      ],
      "name": "updateLicensePrice",
      "outputs": [],
      "stateMutability": "nonpayable",
      "type": "function"
    },
    {
      "inputs": [
        {
          "internalType": "uint256",
          "name": "tokenId",
          "type": "uint256"
        }
      ],
      "name": "updateSubscription",
      "outputs": [],
      "stateMutability": "payable",
      "type": "function"
    },
    {
      "inputs": [],
      "name": "withdraw",
      "outputs": [],
      "stateMutability": "nonpayable",
      "type": "function"
    }
  ],
  "bytecode": "0x60806040523480156200001157600080fd5b506040516200277d3803806200277d83398101604081905262000034916200024b565b6040518060400160405280601081526020016f536f667477617265204c6963656e736560801b8152506040518060400160405280600381526020016253484b60e81b81525081600090816200008a91906200037e565b5060016200009982826200037e565b505050620000b6620000b06200013060201b60201c565b62000134565b600060075560088290556009620000ce86826200037e565b50600b620000dd85826200037e565b5060408051808201909152600c81526b29bab139b1b934b83a34b7b760a11b6020820152600a906200011090826200037e565b50600c819055600d6200012484826200037e565b5050505050506200044a565b3390565b600680546001600160a01b038381166001600160a01b0319831681179093556040519116919082907f8be0079c531659141344cd1fd0a4f28419497f9722a3daafe3b4186f6b6457e090600090a35050565b634e487b7160e01b600052604160045260246000fd5b600082601f830112620001ae57600080fd5b81516001600160401b0380821115620001cb57620001cb62000186565b604051601f8301601f19908116603f01168101908282118183101715620001f657620001f662000186565b816040528381526020925086838588010111156200021357600080fd5b600091505b8382101562000237578582018301518183018401529082019062000218565b600093810190920192909252949350505050565b600080600080600060a086880312156200026457600080fd5b85516001600160401b03808211156200027c57600080fd5b6200028a89838a016200019c565b96506020880151915080821115620002a157600080fd5b620002af89838a016200019c565b95506040880151915080821115620002c657600080fd5b50620002d5888289016200019c565b606088015160809098015196999598509695949350505050565b600181811c908216806200030457607f821691505b6020821081036200032557634e487b7160e01b600052602260045260246000fd5b50919050565b601f8211156200037957600081815260208120601f850160051c81016020861015620003545750805b601f850160051c820191505b81811015620003755782815560010162000360565b5050505b505050565b81516001600160401b038111156200039a576200039a62000186565b620003b281620003ab8454620002ef565b846200032b565b602080601f831160018114620003ea5760008415620003d15750858301515b600019600386901b1c1916600185901b17855562000375565b600085815260208120601f198616915b828110156200041b57888601518255948401946001909101908401620003fa565b50858210156200043a5787850151600019600388901b60f8161c191681555b5050505050600190811b01905550565b612323806200045a6000396000f3fe6080604052600436106101f95760003560e01c8063715018a61161010d578063a22cb465116100a0578063b88d4fde1161006f578063b88d4fde146105c4578063c87b56dd146105e4578063d16da4dd14610604578063e985e9c514610624578063f2fde38b1461066d57600080fd5b8063a22cb46514610557578063a482171914610577578063b61609151461057f578063b6f0aaa5146105af57600080fd5b8063858684b1116100dc578063858684b1146104ca5780638bde494d146104f75780638da5cb5b1461052457806395d89b411461054257600080fd5b8063715018a61461045557806372fdc40e1461046a5780637b5321a41461049757806381a36eec146104b757600080fd5b806323b872dd1161019057806342842e0e1161015f57806342842e0e146103b057806357e2c0f5146103d05780636352211e146104005780636e02007d1461042057806370a082311461043557600080fd5b806323b872dd1461032e57806323e35d7c1461034e57806338baa7d01461036e5780633ccfd60b1461039b57600080fd5b8063095ea7b3116101cc578063095ea7b3146102af5780631af62808146102cf57806321235083146102ee57806322aafbff1461030e57600080fd5b806301173a74146101fe57806301ffc9a71461022057806306fdde0314610255578063081812fc14610277575b600080fd5b34801561020a57600080fd5b5061021e610219366004611b9d565b61068d565b005b34801561022c57600080fd5b5061024061023b366004611bce565b61075d565b60405190151581526020015b60405180910390f35b34801561026157600080fd5b5061026a6107af565b60405161024c9190611c3b565b34801561028357600080fd5b50610297610292366004611c4e565b610841565b6040516001600160a01b03909116815260200161024c565b3480156102bb57600080fd5b5061021e6102ca366004611c67565b610868565b3480156102db57600080fd5b506008545b60405190815260200161024c565b3480156102fa57600080fd5b5061021e610309366004611c4e565b610982565b34801561031a57600080fd5b5061021e610329366004611c4e565b61099d565b34801561033a57600080fd5b5061021e610349366004611c91565b6109b6565b34801561035a57600080fd5b50610240610369366004611ccd565b610a63565b34801561037a57600080fd5b506102e0610389366004611c4e565b600e6020526000908152604090205481565b3480156103a757600080fd5b5061021e610a89565b3480156103bc57600080fd5b5061021e6103cb366004611c91565b610aff565b3480156103dc57600080fd5b506102406103eb366004611c4e565b6000908152600f602052604090205442111590565b34801561040c57600080fd5b5061029761041b366004611c4e565b610b1a565b34801561042c57600080fd5b506007546102e0565b34801561044157600080fd5b506102e0610450366004611b9d565b610b7a565b34801561046157600080fd5b5061021e610c00565b34801561047657600080fd5b506102e0610485366004611c4e565b600f6020526000908152604090205481565b3480156104a357600080fd5b5061021e6104b2366004611c4e565b610c14565b61021e6104c5366004611c4e565b610c71565b3480156104d657600080fd5b506102e06104e5366004611c4e565b6000908152600f602052604090205490565b34801561050357600080fd5b506102e0610512366004611c4e565b60106020526000908152604090205481565b34801561053057600080fd5b506006546001600160a01b0316610297565b34801561054e57600080fd5b5061026a610d2a565b34801561056357600080fd5b5061021e610572366004611cef565b610d39565b61021e610d44565b34801561058b57600080fd5b5061024061059a366004611c4e565b60009081526010602052604090205460011490565b3480156105bb57600080fd5b50600c546102e0565b3480156105d057600080fd5b5061021e6105df366004611d41565b610e2e565b3480156105f057600080fd5b5061026a6105ff366004611c4e565b610f4e565b34801561061057600080fd5b5061021e61061f366004611c4e565b61104b565b34801561063057600080fd5b5061024061063f366004611e1d565b6001600160a01b03918216600090815260056020908152604080832093909416825291909152205460ff1690565b34801561067957600080fd5b5061021e610688366004611b9d565b611067565b6106956110e0565b60078054600090815260106020526040902060019055546106b790829061113a565b6007546000908152600e602052604090204290819055600c546106da9190611154565b600780546000908152600f60209081526040808320949094558254825260109052918220919091555461070e906001611e66565b600781905561071f90600190611e79565b7fea6ba2790ea1c6dd86dd2089cbf7a852c5fd716cca808ac3aaf6e29353d5b1dc60085460405161075291815260200190565b60405180910390a250565b60006001600160e01b031982166380ac58cd60e01b148061078e57506001600160e01b03198216635b5e139f60e01b145b806107a957506301ffc9a760e01b6001600160e01b03198316145b92915050565b6060600080546107be90611e8c565b80601f01602080910402602001604051908101604052809291908181526020018280546107ea90611e8c565b80156108375780601f1061080c57610100808354040283529160200191610837565b820191906000526020600020905b81548152906001019060200180831161081a57829003601f168201915b5050505050905090565b600061084c82611167565b506000908152600460205260409020546001600160a01b031690565b600061087382610b1a565b9050806001600160a01b0316836001600160a01b0316036108e55760405162461bcd60e51b815260206004820152602160248201527f4552433732313a20617070726f76616c20746f2063757272656e74206f776e656044820152603960f91b60648201526084015b60405180910390fd5b336001600160a01b03821614806109015750610901813361063f565b6109735760405162461bcd60e51b815260206004820152603d60248201527f4552433732313a20617070726f76652063616c6c6572206973206e6f7420746f60448201527f6b656e206f776e6572206f7220617070726f76656420666f7220616c6c00000060648201526084016108dc565b61097d83836111b7565b505050565b61098a6110e0565b6000908152600f60205260409020429055565b6109a56110e0565b600090815260106020526040812055565b6109c03382611225565b6109dc5760405162461bcd60e51b81526004016108dc90611ec6565b6109e5816112a4565b610a2d5760405162461bcd60e51b815260206004820152601960248201527822a9219b99189d103737b732bc34b9ba32b73a103a37b5b2b760391b60448201526064016108dc565b610a3a83838360016112c1565b610a456000826111b7565b610a5083838361133e565b6000908152601060205260408120555050565b6000828152600f60205260408120548210610a80575060006107a9565b50600192915050565b610a916110e0565b6040514790600090339083908381818185875af1925050503d8060008114610ad5576040519150601f19603f3d011682016040523d82523d6000602084013e610ada565b606091505b5050905080610afb5760405162e1a2f960e11b815260040160405180910390fd5b5050565b61097d83838360405180602001604052806000815250610e2e565b6000818152600260205260408120546001600160a01b0316806107a95760405162461bcd60e51b8152602060048201526018602482015277115490cdcc8c4e881a5b9d985b1a59081d1bdad95b88125160421b60448201526064016108dc565b60006001600160a01b038216610be45760405162461bcd60e51b815260206004820152602960248201527f4552433732313a2061646472657373207a65726f206973206e6f7420612076616044820152683634b21037bbb732b960b91b60648201526084016108dc565b506001600160a01b031660009081526003602052604090205490565b610c086110e0565b610c1260006114af565b565b610c1c6110e0565b60008111610c6c5760405162461bcd60e51b815260206004820152601f60248201527f5072696365206d7573742062652067726561746572207468616e207a65726f0060448201526064016108dc565b600855565b600854341015610c9457604051635448cff560e01b815260040160405180910390fd5b6000818152600f60205260409020544211610cd857600c546000828152600f6020526040902054610cc491611154565b6000828152600f6020526040902055610cf6565b600c54610ce6904290611154565b6000828152600f60205260409020555b807faab14031e88faeea4213dcd9a96061711625f43a506936ed2ae574ea9350173d60085460405161075291815260200190565b6060600180546107be90611e8c565b610afb338383611501565b600854341015610d6757604051635448cff560e01b815260040160405180910390fd5b6007805460009081526010602052604090206001905554610d8990339061113a565b6007546000908152600e602052604090204290819055600c54610dac9190611154565b600780546000908152600f602090815260408083209490945582548252601090529182209190915554610de0906001611e66565b6007819055610df190600190611e79565b7fea6ba2790ea1c6dd86dd2089cbf7a852c5fd716cca808ac3aaf6e29353d5b1dc600854604051610e2491815260200190565b60405180910390a2565b610e383383611225565b610e545760405162461bcd60e51b81526004016108dc90611ec6565b610e5d826112a4565b610ea55760405162461bcd60e51b815260206004820152601960248201527822a9219b99189d103737b732bc34b9ba32b73a103a37b5b2b760391b60448201526064016108dc565b600082815260106020526040902054600114610f165760405162461bcd60e51b815260206004820152602a60248201527f4552433732313a20746f6b656e206973206e6f7420617070726f76656420666f60448201526939103a3930b739b332b960b11b60648201526084016108dc565b610f2384848460016112c1565b610f2e6000836111b7565b610f3a848484846115cf565b506000908152601060205260408120555050565b6060610f59826112a4565b610f76576040516336faf6d760e11b815260040160405180910390fd5b60408051808201909152601d81527f646174613a6170706c69636174696f6e2f6a736f6e3b6261736536342c00000060208201526110246009600b600d600a610fc0600854611602565b6000898152600e6020526040902054610fd890611602565b60008a8152600f6020526040902054610ff090611602565b610ff98b611602565b604051602001611010989796959493929190611fd0565b604051602081830303815290604052611695565b604051602001611035929190612154565b6040516020818303038152906040529050919050565b6110536110e0565b600090815260106020526040902060019055565b61106f6110e0565b6001600160a01b0381166110d45760405162461bcd60e51b815260206004820152602660248201527f4f776e61626c653a206e6577206f776e657220697320746865207a65726f206160448201526564647265737360d01b60648201526084016108dc565b6110dd816114af565b50565b6006546001600160a01b03163314610c125760405162461bcd60e51b815260206004820181905260248201527f4f776e61626c653a2063616c6c6572206973206e6f7420746865206f776e657260448201526064016108dc565b610afb8282604051806020016040528060008152506117fa565b60006111608284611e66565b9392505050565b611170816112a4565b6110dd5760405162461bcd60e51b8152602060048201526018602482015277115490cdcc8c4e881a5b9d985b1a59081d1bdad95b88125160421b60448201526064016108dc565b600081815260046020526040902080546001600160a01b0319166001600160a01b03841690811790915581906111ec82610b1a565b6001600160a01b03167f8c5be1e5ebec7d5bd14f71427d1e84f3dd0314c0f7b2291e5b200ac8c7c3b92560405160405180910390a45050565b60008061123183610b1a565b9050806001600160a01b0316846001600160a01b0316148061127857506001600160a01b0380821660009081526005602090815260408083209388168352929052205460ff165b8061129c5750836001600160a01b031661129184610841565b6001600160a01b0316145b949350505050565b6000908152600260205260409020546001600160a01b0316151590565b6000828152601060205260409020546001146113385760405162461bcd60e51b815260206004820152603060248201527f5072696f7220417070726f76616c206e656564656420666f72207472616e736660448201526f6572206f662074686520746f6b656e7360801b60648201526084016108dc565b50505050565b826001600160a01b031661135182610b1a565b6001600160a01b0316146113775760405162461bcd60e51b81526004016108dc90612183565b6001600160a01b0382166113d95760405162461bcd60e51b8152602060048201526024808201527f4552433732313a207472616e7366657220746f20746865207a65726f206164646044820152637265737360e01b60648201526084016108dc565b6113e683838360016112c1565b826001600160a01b03166113f982610b1a565b6001600160a01b03161461141f5760405162461bcd60e51b81526004016108dc90612183565b600081815260046020908152604080832080546001600160a01b03199081169091556001600160a01b0387811680865260038552838620805460001901905590871680865283862080546001019055868652600290945282852080549092168417909155905184937fddf252ad1be2c89b69c2b068fc378daa952ba7f163c4a11628f55a4df523b3ef91a4505050565b600680546001600160a01b038381166001600160a01b0319831681179093556040519116919082907f8be0079c531659141344cd1fd0a4f28419497f9722a3daafe3b4186f6b6457e090600090a35050565b816001600160a01b0316836001600160a01b0316036115625760405162461bcd60e51b815260206004820152601960248201527f4552433732313a20617070726f766520746f2063616c6c65720000000000000060448201526064016108dc565b6001600160a01b03838116600081815260056020908152604080832094871680845294825291829020805460ff191686151590811790915591519182527f17307eab39ab6107e8899845ad3d59bd9653f200f220920489ca2b5937696c31910160405180910390a3505050565b6115da84848461133e565b6115e68484848461182d565b6113385760405162461bcd60e51b81526004016108dc906121c8565b6060600061160f8361192e565b600101905060008167ffffffffffffffff81111561162f5761162f611d2b565b6040519080825280601f01601f191660200182016040528015611659576020820181803683370190505b5090508181016020015b600019016f181899199a1a9b1b9c1cb0b131b232b360811b600a86061a8153600a850494508461166357509392505050565b606081516000036116b457505060408051602081019091526000815290565b60006040518060600160405280604081526020016122ae60409139905060006003845160026116e39190611e66565b6116ed919061221a565b6116f890600461223c565b90506000611707826020611e66565b67ffffffffffffffff81111561171f5761171f611d2b565b6040519080825280601f01601f191660200182016040528015611749576020820181803683370190505b509050818152600183018586518101602084015b818310156117b5576003830192508251603f8160121c168501518253600182019150603f81600c1c168501518253600182019150603f8160061c168501518253600182019150603f811685015182535060010161175d565b6003895106600181146117cf57600281146117e0576117ec565b613d3d60f01b6001198301526117ec565b603d60f81b6000198301525b509398975050505050505050565b6118048383611a06565b611811600084848461182d565b61097d5760405162461bcd60e51b81526004016108dc906121c8565b60006001600160a01b0384163b1561192357604051630a85bd0160e11b81526001600160a01b0385169063150b7a0290611871903390899088908890600401612253565b6020604051808303816000875af19250505080156118ac575060408051601f3d908101601f191682019092526118a991810190612290565b60015b611909573d8080156118da576040519150601f19603f3d011682016040523d82523d6000602084013e6118df565b606091505b5080516000036119015760405162461bcd60e51b81526004016108dc906121c8565b805181602001fd5b6001600160e01b031916630a85bd0160e11b14905061129c565b506001949350505050565b60008072184f03e93ff9f4daa797ed6e38ed64bf6a1f0160401b831061196d5772184f03e93ff9f4daa797ed6e38ed64bf6a1f0160401b830492506040015b6d04ee2d6d415b85acef81000000008310611999576d04ee2d6d415b85acef8100000000830492506020015b662386f26fc1000083106119b757662386f26fc10000830492506010015b6305f5e10083106119cf576305f5e100830492506008015b61271083106119e357612710830492506004015b606483106119f5576064830492506002015b600a83106107a95760010192915050565b6001600160a01b038216611a5c5760405162461bcd60e51b815260206004820181905260248201527f4552433732313a206d696e7420746f20746865207a65726f206164647265737360448201526064016108dc565b611a65816112a4565b15611ab25760405162461bcd60e51b815260206004820152601c60248201527f4552433732313a20746f6b656e20616c7265616479206d696e7465640000000060448201526064016108dc565b611ac06000838360016112c1565b611ac9816112a4565b15611b165760405162461bcd60e51b815260206004820152601c60248201527f4552433732313a20746f6b656e20616c7265616479206d696e7465640000000060448201526064016108dc565b6001600160a01b038216600081815260036020908152604080832080546001019055848352600290915280822080546001600160a01b0319168417905551839291907fddf252ad1be2c89b69c2b068fc378daa952ba7f163c4a11628f55a4df523b3ef908290a45050565b80356001600160a01b0381168114611b9857600080fd5b919050565b600060208284031215611baf57600080fd5b61116082611b81565b6001600160e01b0319811681146110dd57600080fd5b600060208284031215611be057600080fd5b813561116081611bb8565b60005b83811015611c06578181015183820152602001611bee565b50506000910152565b60008151808452611c27816020860160208601611beb565b601f01601f19169290920160200192915050565b6020815260006111606020830184611c0f565b600060208284031215611c6057600080fd5b5035919050565b60008060408385031215611c7a57600080fd5b611c8383611b81565b946020939093013593505050565b600080600060608486031215611ca657600080fd5b611caf84611b81565b9250611cbd60208501611b81565b9150604084013590509250925092565b60008060408385031215611ce057600080fd5b50508035926020909101359150565b60008060408385031215611d0257600080fd5b611d0b83611b81565b915060208301358015158114611d2057600080fd5b809150509250929050565b634e487b7160e01b600052604160045260246000fd5b60008060008060808587031215611d5757600080fd5b611d6085611b81565b9350611d6e60208601611b81565b925060408501359150606085013567ffffffffffffffff80821115611d9257600080fd5b818701915087601f830112611da657600080fd5b813581811115611db857611db8611d2b565b604051601f8201601f19908116603f01168101908382118183101715611de057611de0611d2b565b816040528281528a6020848701011115611df957600080fd5b82602086016020830137600060208483010152809550505050505092959194509250565b60008060408385031215611e3057600080fd5b611e3983611b81565b9150611e4760208401611b81565b90509250929050565b634e487b7160e01b600052601160045260246000fd5b808201808211156107a9576107a9611e50565b818103818111156107a9576107a9611e50565b600181811c90821680611ea057607f821691505b602082108103611ec057634e487b7160e01b600052602260045260246000fd5b50919050565b60208082526031908201527f4552433732313a207472616e736665722063616c6c6572206973206e6f74206f6040820152701ddb995c881b9bdc88185c1c1c9bdd9959607a1b606082015260800190565b8054600090600181811c9080831680611f3157607f831692505b60208084108203611f5257634e487b7160e01b600052602260045260246000fd5b818015611f665760018114611f7b57611fa8565b60ff1986168952841515850289019650611fa8565b60008881526020902060005b86811015611fa05781548b820152908501908301611f87565b505084890196505b50505050505092915050565b60008151611fc6818560208601611beb565b9290920192915050565b683d913730b6b2911d1160b91b81526000611fee600983018b611f17565b711116113634b1b2b739b2903730b6b2911d1160711b8152612013601282018b611f17565b90507f222c226c6963656e73652061677265656d656e742055726c223a2200000000008152612045601b82018a611f17565b711116113634b1b2b739b2902a3cb832911d1160711b8152905061206c6012820189611f17565b6a111611383934b1b2911d1160a91b8152875190915061209381600b840160208b01611beb565b7411161139ba30b93a103a34b6b2b9ba30b6b8111d1160591b600b929091019182015285516120c9816020808501908a01611beb565b8082019150507f222c2265787069726174696f6e2074696d657374616d70223a220000000000006020820152845161210881603a840160208901611beb565b612144612136612130603a848601016c1116113a37b5b2b724a2111d1160991b8152600d0190565b87611fb4565b61227d60f01b815260020190565b9c9b505050505050505050505050565b60008351612166818460208801611beb565b83519083019061217a818360208801611beb565b01949350505050565b60208082526025908201527f4552433732313a207472616e736665722066726f6d20696e636f72726563742060408201526437bbb732b960d91b606082015260800190565b60208082526032908201527f4552433732313a207472616e7366657220746f206e6f6e20455243373231526560408201527131b2b4bb32b91034b6b83632b6b2b73a32b960711b606082015260800190565b60008261223757634e487b7160e01b600052601260045260246000fd5b500490565b80820281158282048414176107a9576107a9611e50565b6001600160a01b038581168252841660208201526040810183905260806060820181905260009061228690830184611c0f565b9695505050505050565b6000602082840312156122a257600080fd5b815161116081611bb856fe4142434445464748494a4b4c4d4e4f505152535455565758595a6162636465666768696a6b6c6d6e6f707172737475767778797a303132333435363738392b2fa26469706673582212202bc0818edd8a8b67e4f2f785a4d85ea5653ae871a6f1f7b29b9a8ea9b90caf6964736f6c63430008110033",
  "linkReferences": {},
  "deployedLinkReferences": {}
}