{
  "_format": "hh-sol-artifact-1",
  "contractName": "LicenseActivation",
  "sourceName": "contracts/LicenseActivation.sol",
  "abi": [
    {
      "anonymous": false,
      "inputs": [
        {
          "indexed": true,
          "internalType": "uint256",
          "name": "tokenId",
          "type": "uint256"
        },
        {
          "indexed": true,
          "internalType": "bytes32",
          "name": "hash",
          "type": "bytes32"
        },
        {
          "indexed": true,
          "internalType": "address",
          "name": "customer",
          "type": "address"
        }
      ],
      "name": "Activation",
      "type": "event"
    },
    {
      "anonymous": false,
      "inputs": [
        {
          "indexed": true,
          "internalType": "uint256",
          "name": "tokenId",
          "type": "uint256"
        },
        {
          "indexed": true,
          "internalType": "address",
          "name": "customer",
          "type": "address"
        }
      ],
      "name": "Deactivation",
      "type": "event"
    },
    {
      "anonymous": false,
      "inputs": [
        {
          "indexed": true,
          "internalType": "address",
          "name": "previousOwner",
          "type": "address"
        },
        {
          "indexed": true,
          "internalType": "address",
          "name": "newOwner",
          "type": "address"
        }
      ],
      "name": "OwnershipTransferred",
      "type": "event"
    },
    {
      "inputs": [
        {
          "internalType": "uint256",
          "name": "tokenId",
          "type": "uint256"
        },
        {
          "internalType": "bytes32",
          "name": "hash",
          "type": "bytes32"
        },
        {
          "internalType": "bytes",
          "name": "signature",
          "type": "bytes"
        }
      ],
      "name": "activateLicense",
      "outputs": [],
      "stateMutability": "nonpayable",
      "type": "function"
    },
    {
      "inputs": [
        {
          "internalType": "uint256",
          "name": "tokenId",
          "type": "uint256"
        }
      ],
      "name": "deactivateLicense",
      "outputs": [],
      "stateMutability": "nonpayable",
      "type": "function"
    },
    {
      "inputs": [
        {
          "internalType": "address",
          "name": "perpetualLicenseContractAddress",
          "type": "address"
        }
      ],
      "name": "initialize",
      "outputs": [],
      "stateMutability": "nonpayable",
      "type": "function"
    },
    {
      "inputs": [
        {
          "internalType": "uint256",
          "name": "tokenId",
          "type": "uint256"
        }
      ],
      "name": "isLicenseActivated",
      "outputs": [
        {
          "internalType": "bool",
          "name": "",
          "type": "bool"
        }
      ],
      "stateMutability": "view",
      "type": "function"
    },
    {
      "inputs": [],
      "name": "owner",
      "outputs": [
        {
          "internalType": "address",
          "name": "",
          "type": "address"
        }
      ],
      "stateMutability": "view",
      "type": "function"
    },
    {
      "inputs": [],
      "name": "renounceOwnership",
      "outputs": [],
      "stateMutability": "nonpayable",
      "type": "function"
    },
    {
      "inputs": [
        {
          "internalType": "address",
          "name": "newOwner",
          "type": "address"
        }
      ],
      "name": "transferOwnership",
      "outputs": [],
      "stateMutability": "nonpayable",
      "type": "function"
    }
  ],
  "bytecode": "0x608060405234801561001057600080fd5b5061001a3361001f565b61006f565b600080546001600160a01b038381166001600160a01b0319831681178455604051919092169283917f8be0079c531659141344cd1fd0a4f28419497f9722a3daafe3b4186f6b6457e09190a35050565b610a2e8061007e6000396000f3fe608060405234801561001057600080fd5b506004361061007d5760003560e01c80638da5cb5b1161005b5780638da5cb5b146100d7578063c4d66de8146100f2578063d3e935ef14610105578063f2fde38b1461011857600080fd5b8063176e8a2f14610082578063662d3363146100ba578063715018a6146100cf575b600080fd5b6100a56100903660046108f3565b60009081526002602052604090205460ff1690565b60405190151581526020015b60405180910390f35b6100cd6100c83660046108f3565b61012b565b005b6100cd6102b1565b6000546040516001600160a01b0390911681526020016100b1565b6100cd610100366004610921565b6102c5565b6100cd610113366004610945565b61033e565b6100cd610126366004610921565b610559565b60008181526002602052604090205460ff1661018e5760405162461bcd60e51b815260206004820152601860248201527f4c6963656e7365206973206e6f7420616374697661746564000000000000000060448201526064015b60405180910390fd5b6001546040516331a9108f60e11b8152600481018390526000916001600160a01b031690636352211e90602401602060405180830381865afa1580156101d8573d6000803e3d6000fd5b505050506040513d601f19601f820116820180604052508101906101fc91906109c5565b9050336001600160a01b038216146102645760405162461bcd60e51b815260206004820152602560248201527f4f6e6c7920746865206c6963656e7365206f776e65722063616e206465616374604482015264697661746560d81b6064820152608401610185565b600082815260026020526040808220805460ff19169055516001600160a01b0383169184917f0217687790e0190a6751ed0ef3bdaf809b92db4ece257e400b98fdffcfa7b4e69190a35050565b6102b96105d2565b6102c3600061062c565b565b6102cd6105d2565b6001546001600160a01b03161561031c5760405162461bcd60e51b8152602060048201526013602482015272105b1c9958591e481a5b9a5d1a585b1a5e9959606a1b6044820152606401610185565b600180546001600160a01b0319166001600160a01b0392909216919091179055565b60008481526002602052604090205460ff161561039d5760405162461bcd60e51b815260206004820152601c60248201527f4c6963656e736520697320616c726561647920616374697661746564000000006044820152606401610185565b6001546040516331a9108f60e11b8152600481018690526000916001600160a01b031690636352211e90602401602060405180830381865afa1580156103e7573d6000803e3d6000fd5b505050506040513d601f19601f8201168201806040525081019061040b91906109c5565b90506000610466856040517f19457468657265756d205369676e6564204d6573736167653a0a3332000000006020820152603c8101829052600090605c01604051602081830303815290604052805190602001209050919050565b905060006104ac85858080601f016020809104026020016040519081016040528093929190818152602001838380828437600092019190915250869392505061067c9050565b9050826001600160a01b0316816001600160a01b0316146105035760405162461bcd60e51b8152602060048201526011602482015270496e76616c6964207369676e617475726560781b6044820152606401610185565b600087815260026020526040808220805460ff19166001179055516001600160a01b0385169188918a917fc0eb5dad296fc5e536fc0c4dd91b70ec561fc10565850ebcbae7c0ba71c8b9ef91a450505050505050565b6105616105d2565b6001600160a01b0381166105c65760405162461bcd60e51b815260206004820152602660248201527f4f776e61626c653a206e6577206f776e657220697320746865207a65726f206160448201526564647265737360d01b6064820152608401610185565b6105cf8161062c565b50565b6000546001600160a01b031633146102c35760405162461bcd60e51b815260206004820181905260248201527f4f776e61626c653a2063616c6c6572206973206e6f7420746865206f776e65726044820152606401610185565b600080546001600160a01b038381166001600160a01b0319831681178455604051919092169283917f8be0079c531659141344cd1fd0a4f28419497f9722a3daafe3b4186f6b6457e09190a35050565b600080600061068b85856106a0565b91509150610698816106e5565b509392505050565b60008082516041036106d65760208301516040840151606085015160001a6106ca8782858561082f565b945094505050506106de565b506000905060025b9250929050565b60008160048111156106f9576106f96109e2565b036107015750565b6001816004811115610715576107156109e2565b036107625760405162461bcd60e51b815260206004820152601860248201527f45434453413a20696e76616c6964207369676e617475726500000000000000006044820152606401610185565b6002816004811115610776576107766109e2565b036107c35760405162461bcd60e51b815260206004820152601f60248201527f45434453413a20696e76616c6964207369676e6174757265206c656e677468006044820152606401610185565b60038160048111156107d7576107d76109e2565b036105cf5760405162461bcd60e51b815260206004820152602260248201527f45434453413a20696e76616c6964207369676e6174757265202773272076616c604482015261756560f01b6064820152608401610185565b6000807f7fffffffffffffffffffffffffffffff5d576e7357a4501ddfe92f46681b20a083111561086657506000905060036108ea565b6040805160008082526020820180845289905260ff881692820192909252606081018690526080810185905260019060a0016020604051602081039080840390855afa1580156108ba573d6000803e3d6000fd5b5050604051601f1901519150506001600160a01b0381166108e3576000600192509250506108ea565b9150600090505b94509492505050565b60006020828403121561090557600080fd5b5035919050565b6001600160a01b03811681146105cf57600080fd5b60006020828403121561093357600080fd5b813561093e8161090c565b9392505050565b6000806000806060858703121561095b57600080fd5b8435935060208501359250604085013567ffffffffffffffff8082111561098157600080fd5b818701915087601f83011261099557600080fd5b8135818111156109a457600080fd5b8860208285010111156109b657600080fd5b95989497505060200194505050565b6000602082840312156109d757600080fd5b815161093e8161090c565b634e487b7160e01b600052602160045260246000fdfea2646970667358221220dac3f4bb6a51dd39ab7e22b5a09437e2aae5851dd677d21afaeea52c9421478264736f6c63430008110033",
  "linkReferences": {},
  "deployedLinkReferences": {}
}