{
  "_format": "hh-sol-artifact-1",
  "contractName": "PerpetualLicense",
  "sourceName": "contracts/PerpetualLicense.sol",
  "abi": [
    {
      "inputs": [
        {
          "internalType": "string",
          "name": "companyName",
          "type": "string"
        },
        {
          "internalType": "string",
          "name": "licenseName",
          "type": "string"
        },
        {
          "internalType": "string",
          "name": "licenseAgreementUrl",
          "type": "string"
        },
        {
          "internalType": "uint256",
          "name": "licensePrice",
          "type": "uint256"
        },
        {
          "internalType": "uint96",
          "name": "royaltyPercentage",
          "type": "uint96"
        },
        {
          "internalType": "address",
          "name": "licenseActivationContractAddress",
          "type": "address"
        }
      ],
      "stateMutability": "nonpayable",
      "type": "constructor"
    },
    {
      "inputs": [],
      "name": "ERC721Metadata__URI_QueryFor_NonExistentToken",
      "type": "error"
    },
    {
      "inputs": [],
      "name": "PerpetualLicense__NeedMoreETHSent",
      "type": "error"
    },
    {
      "inputs": [],
      "name": "PerpetualLicense__TransferFailed",
      "type": "error"
    },
    {
      "anonymous": false,
      "inputs": [
        {
          "indexed": true,
          "internalType": "address",
          "name": "owner",
          "type": "address"
        },
        {
          "indexed": true,
          "internalType": "address",
          "name": "approved",
          "type": "address"
        },
        {
          "indexed": true,
          "internalType": "uint256",
          "name": "tokenId",
          "type": "uint256"
        }
      ],
      "name": "Approval",
      "type": "event"
    },
    {
      "anonymous": false,
      "inputs": [
        {
          "indexed": true,
          "internalType": "address",
          "name": "owner",
          "type": "address"
        },
        {
          "indexed": true,
          "internalType": "address",
          "name": "operator",
          "type": "address"
        },
        {
          "indexed": false,
          "internalType": "bool",
          "name": "approved",
          "type": "bool"
        }
      ],
      "name": "ApprovalForAll",
      "type": "event"
    },
    {
      "anonymous": false,
      "inputs": [
        {
          "indexed": true,
          "internalType": "uint256",
          "name": "tokenId",
          "type": "uint256"
        },
        {
          "indexed": false,
          "internalType": "uint256",
          "name": "licensePrice",
          "type": "uint256"
        }
      ],
      "name": "CreatedLicenseToken",
      "type": "event"
    },
    {
      "anonymous": false,
      "inputs": [
        {
          "indexed": true,
          "internalType": "address",
          "name": "previousOwner",
          "type": "address"
        },
        {
          "indexed": true,
          "internalType": "address",
          "name": "newOwner",
          "type": "address"
        }
      ],
      "name": "OwnershipTransferred",
      "type": "event"
    },
    {
      "anonymous": false,
      "inputs": [
        {
          "indexed": true,
          "internalType": "address",
          "name": "from",
          "type": "address"
        },
        {
          "indexed": true,
          "internalType": "address",
          "name": "to",
          "type": "address"
        },
        {
          "indexed": true,
          "internalType": "uint256",
          "name": "tokenId",
          "type": "uint256"
        }
      ],
      "name": "Transfer",
      "type": "event"
    },
    {
      "inputs": [
        {
          "internalType": "address",
          "name": "to",
          "type": "address"
        },
        {
          "internalType": "uint256",
          "name": "tokenId",
          "type": "uint256"
        }
      ],
      "name": "approve",
      "outputs": [],
      "stateMutability": "nonpayable",
      "type": "function"
    },
    {
      "inputs": [
        {
          "internalType": "address",
          "name": "owner",
          "type": "address"
        }
      ],
      "name": "balanceOf",
      "outputs": [
        {
          "internalType": "uint256",
          "name": "",
          "type": "uint256"
        }
      ],
      "stateMutability": "view",
      "type": "function"
    },
    {
      "inputs": [],
      "name": "buyToken",
      "outputs": [],
      "stateMutability": "payable",
      "type": "function"
    },
    {
      "inputs": [
        {
          "internalType": "uint256",
          "name": "tokenId",
          "type": "uint256"
        }
      ],
      "name": "getApproved",
      "outputs": [
        {
          "internalType": "address",
          "name": "",
          "type": "address"
        }
      ],
      "stateMutability": "view",
      "type": "function"
    },
    {
      "inputs": [],
      "name": "getLicenseActivationContractAddress",
      "outputs": [
        {
          "internalType": "address",
          "name": "",
          "type": "address"
        }
      ],
      "stateMutability": "view",
      "type": "function"
    },
    {
      "inputs": [],
      "name": "getLicensePrice",
      "outputs": [
        {
          "internalType": "uint256",
          "name": "",
          "type": "uint256"
        }
      ],
      "stateMutability": "view",
      "type": "function"
    },
    {
      "inputs": [],
      "name": "getTokenCounter",
      "outputs": [
        {
          "internalType": "uint256",
          "name": "",
          "type": "uint256"
        }
      ],
      "stateMutability": "view",
      "type": "function"
    },
    {
      "inputs": [
        {
          "internalType": "address",
          "name": "owner",
          "type": "address"
        },
        {
          "internalType": "address",
          "name": "operator",
          "type": "address"
        }
      ],
      "name": "isApprovedForAll",
      "outputs": [
        {
          "internalType": "bool",
          "name": "",
          "type": "bool"
        }
      ],
      "stateMutability": "view",
      "type": "function"
    },
    {
      "inputs": [
        {
          "internalType": "address",
          "name": "customer",
          "type": "address"
        }
      ],
      "name": "mintToken",
      "outputs": [],
      "stateMutability": "nonpayable",
      "type": "function"
    },
    {
      "inputs": [],
      "name": "name",
      "outputs": [
        {
          "internalType": "string",
          "name": "",
          "type": "string"
        }
      ],
      "stateMutability": "view",
      "type": "function"
    },
    {
      "inputs": [],
      "name": "owner",
      "outputs": [
        {
          "internalType": "address",
          "name": "",
          "type": "address"
        }
      ],
      "stateMutability": "view",
      "type": "function"
    },
    {
      "inputs": [
        {
          "internalType": "uint256",
          "name": "tokenId",
          "type": "uint256"
        }
      ],
      "name": "ownerOf",
      "outputs": [
        {
          "internalType": "address",
          "name": "",
          "type": "address"
        }
      ],
      "stateMutability": "view",
      "type": "function"
    },
    {
      "inputs": [],
      "name": "renounceOwnership",
      "outputs": [],
      "stateMutability": "nonpayable",
      "type": "function"
    },
    {
      "inputs": [
        {
          "internalType": "uint256",
          "name": "_tokenId",
          "type": "uint256"
        },
        {
          "internalType": "uint256",
          "name": "_salePrice",
          "type": "uint256"
        }
      ],
      "name": "royaltyInfo",
      "outputs": [
        {
          "internalType": "address",
          "name": "",
          "type": "address"
        },
        {
          "internalType": "uint256",
          "name": "",
          "type": "uint256"
        }
      ],
      "stateMutability": "view",
      "type": "function"
    },
    {
      "inputs": [
        {
          "internalType": "address",
          "name": "from",
          "type": "address"
        },
        {
          "internalType": "address",
          "name": "to",
          "type": "address"
        },
        {
          "internalType": "uint256",
          "name": "tokenId",
          "type": "uint256"
        }
      ],
      "name": "safeTransferFrom",
      "outputs": [],
      "stateMutability": "nonpayable",
      "type": "function"
    },
    {
      "inputs": [
        {
          "internalType": "address",
          "name": "from",
          "type": "address"
        },
        {
          "internalType": "address",
          "name": "to",
          "type": "address"
        },
        {
          "internalType": "uint256",
          "name": "tokenId",
          "type": "uint256"
        },
        {
          "internalType": "bytes",
          "name": "data",
          "type": "bytes"
        }
      ],
      "name": "safeTransferFrom",
      "outputs": [],
      "stateMutability": "nonpayable",
      "type": "function"
    },
    {
      "inputs": [
        {
          "internalType": "address",
          "name": "operator",
          "type": "address"
        },
        {
          "internalType": "bool",
          "name": "approved",
          "type": "bool"
        }
      ],
      "name": "setApprovalForAll",
      "outputs": [],
      "stateMutability": "nonpayable",
      "type": "function"
    },
    {
      "inputs": [
        {
          "internalType": "bytes4",
          "name": "interfaceId",
          "type": "bytes4"
        }
      ],
      "name": "supportsInterface",
      "outputs": [
        {
          "internalType": "bool",
          "name": "",
          "type": "bool"
        }
      ],
      "stateMutability": "view",
      "type": "function"
    },
    {
      "inputs": [],
      "name": "symbol",
      "outputs": [
        {
          "internalType": "string",
          "name": "",
          "type": "string"
        }
      ],
      "stateMutability": "view",
      "type": "function"
    },
    {
      "inputs": [
        {
          "internalType": "uint256",
          "name": "tokenId",
          "type": "uint256"
        }
      ],
      "name": "tokenURI",
      "outputs": [
        {
          "internalType": "string",
          "name": "",
          "type": "string"
        }
      ],
      "stateMutability": "view",
      "type": "function"
    },
    {
      "inputs": [
        {
          "internalType": "address",
          "name": "from",
          "type": "address"
        },
        {
          "internalType": "address",
          "name": "to",
          "type": "address"
        },
        {
          "internalType": "uint256",
          "name": "tokenId",
          "type": "uint256"
        }
      ],
      "name": "transferFrom",
      "outputs": [],
      "stateMutability": "nonpayable",
      "type": "function"
    },
    {
      "inputs": [
        {
          "internalType": "address",
          "name": "newOwner",
          "type": "address"
        }
      ],
      "name": "transferOwnership",
      "outputs": [],
      "stateMutability": "nonpayable",
      "type": "function"
    },
    {
      "inputs": [
        {
          "internalType": "uint256",
          "name": "newPrice",
          "type": "uint256"
        }
      ],
      "name": "updateLicensePrice",
      "outputs": [],
      "stateMutability": "nonpayable",
      "type": "function"
    },
    {
      "inputs": [],
      "name": "withdraw",
      "outputs": [],
      "stateMutability": "nonpayable",
      "type": "function"
    }
  ],
  "bytecode": "0x60806040523480156200001157600080fd5b50604051620024493803806200244983398101604081905262000034916200039e565b6040518060400160405280601081526020016f536f667477617265204c6963656e736560801b8152506040518060400160405280600381526020016253484b60e81b81525081600290816200008a9190620004fb565b506003620000998282620004fb565b505050620000b6620000b06200016160201b60201c565b62000165565b6000600955600a839055600b620000ce8782620004fb565b50600d620000dd8682620004fb565b50600e620000ec8582620004fb565b5060408051808201909152600981526814195c9c195d1d585b60ba1b6020820152600c906200011c9082620004fb565b5062000135336200012f846064620005c7565b620001b7565b600f80546001600160a01b0319166001600160a01b039290921691909117905550620006019350505050565b3390565b600880546001600160a01b038381166001600160a01b0319831681179093556040519116919082907f8be0079c531659141344cd1fd0a4f28419497f9722a3daafe3b4186f6b6457e090600090a35050565b6127106001600160601b03821611156200022b5760405162461bcd60e51b815260206004820152602a60248201527f455243323938313a20726f79616c7479206665652077696c6c206578636565646044820152692073616c65507269636560b01b60648201526084015b60405180910390fd5b6001600160a01b038216620002835760405162461bcd60e51b815260206004820152601960248201527f455243323938313a20696e76616c696420726563656976657200000000000000604482015260640162000222565b604080518082019091526001600160a01b039092168083526001600160601b039091166020909201829052600160a01b90910217600055565b634e487b7160e01b600052604160045260246000fd5b600082601f830112620002e457600080fd5b81516001600160401b0380821115620003015762000301620002bc565b604051601f8301601f19908116603f011681019082821181831017156200032c576200032c620002bc565b816040528381526020925086838588010111156200034957600080fd5b600091505b838210156200036d57858201830151818301840152908201906200034e565b600093810190920192909252949350505050565b80516001600160a01b03811681146200039957600080fd5b919050565b60008060008060008060c08789031215620003b857600080fd5b86516001600160401b0380821115620003d057600080fd5b620003de8a838b01620002d2565b97506020890151915080821115620003f557600080fd5b620004038a838b01620002d2565b965060408901519150808211156200041a57600080fd5b506200042989828a01620002d2565b606089015160808a0151919650945090506001600160601b03811681146200045057600080fd5b91506200046060a0880162000381565b90509295509295509295565b600181811c908216806200048157607f821691505b602082108103620004a257634e487b7160e01b600052602260045260246000fd5b50919050565b601f821115620004f657600081815260208120601f850160051c81016020861015620004d15750805b601f850160051c820191505b81811015620004f257828155600101620004dd565b5050505b505050565b81516001600160401b03811115620005175762000517620002bc565b6200052f816200052884546200046c565b84620004a8565b602080601f8311600181146200056757600084156200054e5750858301515b600019600386901b1c1916600185901b178555620004f2565b600085815260208120601f198616915b82811015620005985788860151825594840194600190910190840162000577565b5085821015620005b75787850151600019600388901b60f8161c191681555b5050505050600190811b01905550565b6001600160601b03818116838216028082169190828114620005f957634e487b7160e01b600052601160045260246000fd5b505092915050565b611e3880620006116000396000f3fe60806040526004361061014b5760003560e01c806370a08231116100b6578063a22cb4651161006f578063a22cb465146103af578063a4821719146103cf578063b88d4fde146103d7578063c87b56dd146103f7578063e985e9c514610417578063f2fde38b1461043757600080fd5b806370a0823114610309578063715018a6146103295780637b5321a41461033e5780638b1ad0591461035e5780638da5cb5b1461037c57806395d89b411461039a57600080fd5b806323b872dd1161010857806323b872dd146102405780632a55205a146102605780633ccfd60b1461029f57806342842e0e146102b45780636352211e146102d45780636e02007d146102f457600080fd5b806301173a741461015057806301ffc9a71461017257806306fdde03146101a7578063081812fc146101c9578063095ea7b3146102015780631af6280814610221575b600080fd5b34801561015c57600080fd5b5061017061016b366004611719565b610457565b005b34801561017e57600080fd5b5061019261018d366004611751565b6104c8565b60405190151581526020015b60405180910390f35b3480156101b357600080fd5b506101bc6104d9565b60405161019e91906117be565b3480156101d557600080fd5b506101e96101e43660046117d1565b61056b565b6040516001600160a01b03909116815260200161019e565b34801561020d57600080fd5b5061017061021c3660046117ea565b610592565b34801561022d57600080fd5b50600a545b60405190815260200161019e565b34801561024c57600080fd5b5061017061025b366004611814565b6106ac565b34801561026c57600080fd5b5061028061027b366004611850565b6106dd565b604080516001600160a01b03909316835260208301919091520161019e565b3480156102ab57600080fd5b50610170610789565b3480156102c057600080fd5b506101706102cf366004611814565b610800565b3480156102e057600080fd5b506101e96102ef3660046117d1565b61081b565b34801561030057600080fd5b50600954610232565b34801561031557600080fd5b50610232610324366004611719565b61087b565b34801561033557600080fd5b50610170610901565b34801561034a57600080fd5b506101706103593660046117d1565b610915565b34801561036a57600080fd5b50600f546001600160a01b03166101e9565b34801561038857600080fd5b506008546001600160a01b03166101e9565b3480156103a657600080fd5b506101bc610972565b3480156103bb57600080fd5b506101706103ca366004611880565b610981565b61017061098c565b3480156103e357600080fd5b506101706103f23660046118cd565b610a17565b34801561040357600080fd5b506101bc6104123660046117d1565b610a4f565b34801561042357600080fd5b506101926104323660046119a9565b610b2a565b34801561044357600080fd5b50610170610452366004611719565b610b58565b61045f610bd1565b61046b81600954610c2b565b6009546104799060016119f2565b600981905561048a90600190611a05565b7fb222edcd3d73c8021758828e81f1bccade43b6e354296c382fcb7ceb3fbbc5d7600a546040516104bd91815260200190565b60405180910390a250565b60006104d382610c45565b92915050565b6060600280546104e890611a18565b80601f016020809104026020016040519081016040528092919081815260200182805461051490611a18565b80156105615780601f1061053657610100808354040283529160200191610561565b820191906000526020600020905b81548152906001019060200180831161054457829003601f168201915b5050505050905090565b600061057682610c85565b506000908152600660205260409020546001600160a01b031690565b600061059d8261081b565b9050806001600160a01b0316836001600160a01b03160361060f5760405162461bcd60e51b815260206004820152602160248201527f4552433732313a20617070726f76616c20746f2063757272656e74206f776e656044820152603960f91b60648201526084015b60405180910390fd5b336001600160a01b038216148061062b575061062b8133610b2a565b61069d5760405162461bcd60e51b815260206004820152603d60248201527f4552433732313a20617070726f76652063616c6c6572206973206e6f7420746f60448201527f6b656e206f776e6572206f7220617070726f76656420666f7220616c6c0000006064820152608401610606565b6106a78383610ce4565b505050565b6106b63382610d52565b6106d25760405162461bcd60e51b815260040161060690611a52565b6106a7838383610db1565b60008281526001602090815260408083208151808301909252546001600160a01b038116808352600160a01b9091046001600160601b03169282019290925282916107525750604080518082019091526000546001600160a01b0381168252600160a01b90046001600160601b031660208201525b602081015160009061271090610771906001600160601b031687611a9f565b61077b9190611ab6565b915196919550909350505050565b610791610bd1565b6040514790600090339083908381818185875af1925050503d80600081146107d5576040519150601f19603f3d011682016040523d82523d6000602084013e6107da565b606091505b50509050806107fc576040516307858ed560e11b815260040160405180910390fd5b5050565b6106a783838360405180602001604052806000815250610a17565b6000818152600460205260408120546001600160a01b0316806104d35760405162461bcd60e51b8152602060048201526018602482015277115490cdcc8c4e881a5b9d985b1a59081d1bdad95b88125160421b6044820152606401610606565b60006001600160a01b0382166108e55760405162461bcd60e51b815260206004820152602960248201527f4552433732313a2061646472657373207a65726f206973206e6f7420612076616044820152683634b21037bbb732b960b91b6064820152608401610606565b506001600160a01b031660009081526005602052604090205490565b610909610bd1565b6109136000610e82565b565b61091d610bd1565b6000811161096d5760405162461bcd60e51b815260206004820152601f60248201527f5072696365206d7573742062652067726561746572207468616e207a65726f006044820152606401610606565b600a55565b6060600380546104e890611a18565b6107fc338383610ed4565b600a543410156109af57604051638ed9a18d60e01b815260040160405180910390fd5b6109bb33600954610c2b565b6009546109c99060016119f2565b60098190556109da90600190611a05565b7fb222edcd3d73c8021758828e81f1bccade43b6e354296c382fcb7ceb3fbbc5d7600a54604051610a0d91815260200190565b60405180910390a2565b610a213383610d52565b610a3d5760405162461bcd60e51b815260040161060690611a52565b610a4984848484610fa2565b50505050565b6000818152600460205260409020546060906001600160a01b0316610a87576040516336faf6d760e11b815260040160405180910390fd5b60408051808201909152601d81527f646174613a6170706c69636174696f6e2f6a736f6e3b6261736536342c0000006020820152610b03600b600d600e600c610ad1600a54610fd5565b610ada89610fd5565b604051602001610aef96959493929190611b75565b604051602081830303815290604052611068565b604051602001610b14929190611c85565b6040516020818303038152906040529050919050565b6001600160a01b03918216600090815260076020908152604080832093909416825291909152205460ff1690565b610b60610bd1565b6001600160a01b038116610bc55760405162461bcd60e51b815260206004820152602660248201527f4f776e61626c653a206e6577206f776e657220697320746865207a65726f206160448201526564647265737360d01b6064820152608401610606565b610bce81610e82565b50565b6008546001600160a01b031633146109135760405162461bcd60e51b815260206004820181905260248201527f4f776e61626c653a2063616c6c6572206973206e6f7420746865206f776e65726044820152606401610606565b6107fc8282604051806020016040528060008152506111cd565b60006001600160e01b031982166380ac58cd60e01b1480610c7657506001600160e01b03198216635b5e139f60e01b145b806104d357506104d382611200565b6000818152600460205260409020546001600160a01b0316610bce5760405162461bcd60e51b8152602060048201526018602482015277115490cdcc8c4e881a5b9d985b1a59081d1bdad95b88125160421b6044820152606401610606565b600081815260066020526040902080546001600160a01b0319166001600160a01b0384169081179091558190610d198261081b565b6001600160a01b03167f8c5be1e5ebec7d5bd14f71427d1e84f3dd0314c0f7b2291e5b200ac8c7c3b92560405160405180910390a45050565b600080610d5e8361081b565b9050806001600160a01b0316846001600160a01b03161480610d855750610d858185610b2a565b80610da95750836001600160a01b0316610d9e8461056b565b6001600160a01b0316145b949350505050565b600f5460405163176e8a2f60e01b8152600481018390526001600160a01b039091169063176e8a2f90602401602060405180830381865afa158015610dfa573d6000803e3d6000fd5b505050506040513d601f19601f82011682018060405250810190610e1e9190611cb4565b15610e775760405162461bcd60e51b8152602060048201526024808201527f43616e6e6f74207472616e7366657220616e20616374697661746564206c6963604482015263656e736560e01b6064820152608401610606565b6106a7838383611235565b600880546001600160a01b038381166001600160a01b0319831681179093556040519116919082907f8be0079c531659141344cd1fd0a4f28419497f9722a3daafe3b4186f6b6457e090600090a35050565b816001600160a01b0316836001600160a01b031603610f355760405162461bcd60e51b815260206004820152601960248201527f4552433732313a20617070726f766520746f2063616c6c6572000000000000006044820152606401610606565b6001600160a01b03838116600081815260076020908152604080832094871680845294825291829020805460ff191686151590811790915591519182527f17307eab39ab6107e8899845ad3d59bd9653f200f220920489ca2b5937696c31910160405180910390a3505050565b610fad848484610db1565b610fb984848484611399565b610a495760405162461bcd60e51b815260040161060690611cd1565b60606000610fe28361149a565b600101905060008167ffffffffffffffff811115611002576110026118b7565b6040519080825280601f01601f19166020018201604052801561102c576020820181803683370190505b5090508181016020015b600019016f181899199a1a9b1b9c1cb0b131b232b360811b600a86061a8153600a850494508461103657509392505050565b6060815160000361108757505060408051602081019091526000815290565b6000604051806060016040528060408152602001611dc360409139905060006003845160026110b691906119f2565b6110c09190611ab6565b6110cb906004611a9f565b905060006110da8260206119f2565b67ffffffffffffffff8111156110f2576110f26118b7565b6040519080825280601f01601f19166020018201604052801561111c576020820181803683370190505b509050818152600183018586518101602084015b81831015611188576003830192508251603f8160121c168501518253600182019150603f81600c1c168501518253600182019150603f8160061c168501518253600182019150603f8116850151825350600101611130565b6003895106600181146111a257600281146111b3576111bf565b613d3d60f01b6001198301526111bf565b603d60f81b6000198301525b509398975050505050505050565b6111d78383611572565b6111e46000848484611399565b6106a75760405162461bcd60e51b815260040161060690611cd1565b60006001600160e01b0319821663152a902d60e11b14806104d357506301ffc9a760e01b6001600160e01b03198316146104d3565b826001600160a01b03166112488261081b565b6001600160a01b03161461126e5760405162461bcd60e51b815260040161060690611d23565b6001600160a01b0382166112d05760405162461bcd60e51b8152602060048201526024808201527f4552433732313a207472616e7366657220746f20746865207a65726f206164646044820152637265737360e01b6064820152608401610606565b826001600160a01b03166112e38261081b565b6001600160a01b0316146113095760405162461bcd60e51b815260040161060690611d23565b600081815260066020908152604080832080546001600160a01b03199081169091556001600160a01b0387811680865260058552838620805460001901905590871680865283862080546001019055868652600490945282852080549092168417909155905184937fddf252ad1be2c89b69c2b068fc378daa952ba7f163c4a11628f55a4df523b3ef91a4505050565b60006001600160a01b0384163b1561148f57604051630a85bd0160e11b81526001600160a01b0385169063150b7a02906113dd903390899088908890600401611d68565b6020604051808303816000875af1925050508015611418575060408051601f3d908101601f1916820190925261141591810190611da5565b60015b611475573d808015611446576040519150601f19603f3d011682016040523d82523d6000602084013e61144b565b606091505b50805160000361146d5760405162461bcd60e51b815260040161060690611cd1565b805181602001fd5b6001600160e01b031916630a85bd0160e11b149050610da9565b506001949350505050565b60008072184f03e93ff9f4daa797ed6e38ed64bf6a1f0160401b83106114d95772184f03e93ff9f4daa797ed6e38ed64bf6a1f0160401b830492506040015b6d04ee2d6d415b85acef81000000008310611505576d04ee2d6d415b85acef8100000000830492506020015b662386f26fc10000831061152357662386f26fc10000830492506010015b6305f5e100831061153b576305f5e100830492506008015b612710831061154f57612710830492506004015b60648310611561576064830492506002015b600a83106104d35760010192915050565b6001600160a01b0382166115c85760405162461bcd60e51b815260206004820181905260248201527f4552433732313a206d696e7420746f20746865207a65726f20616464726573736044820152606401610606565b6000818152600460205260409020546001600160a01b03161561162d5760405162461bcd60e51b815260206004820152601c60248201527f4552433732313a20746f6b656e20616c7265616479206d696e746564000000006044820152606401610606565b6000818152600460205260409020546001600160a01b0316156116925760405162461bcd60e51b815260206004820152601c60248201527f4552433732313a20746f6b656e20616c7265616479206d696e746564000000006044820152606401610606565b6001600160a01b038216600081815260056020908152604080832080546001019055848352600490915280822080546001600160a01b0319168417905551839291907fddf252ad1be2c89b69c2b068fc378daa952ba7f163c4a11628f55a4df523b3ef908290a45050565b80356001600160a01b038116811461171457600080fd5b919050565b60006020828403121561172b57600080fd5b611734826116fd565b9392505050565b6001600160e01b031981168114610bce57600080fd5b60006020828403121561176357600080fd5b81356117348161173b565b60005b83811015611789578181015183820152602001611771565b50506000910152565b600081518084526117aa81602086016020860161176e565b601f01601f19169290920160200192915050565b6020815260006117346020830184611792565b6000602082840312156117e357600080fd5b5035919050565b600080604083850312156117fd57600080fd5b611806836116fd565b946020939093013593505050565b60008060006060848603121561182957600080fd5b611832846116fd565b9250611840602085016116fd565b9150604084013590509250925092565b6000806040838503121561186357600080fd5b50508035926020909101359150565b8015158114610bce57600080fd5b6000806040838503121561189357600080fd5b61189c836116fd565b915060208301356118ac81611872565b809150509250929050565b634e487b7160e01b600052604160045260246000fd5b600080600080608085870312156118e357600080fd5b6118ec856116fd565b93506118fa602086016116fd565b925060408501359150606085013567ffffffffffffffff8082111561191e57600080fd5b818701915087601f83011261193257600080fd5b813581811115611944576119446118b7565b604051601f8201601f19908116603f0116810190838211818310171561196c5761196c6118b7565b816040528281528a602084870101111561198557600080fd5b82602086016020830137600060208483010152809550505050505092959194509250565b600080604083850312156119bc57600080fd5b6119c5836116fd565b91506119d3602084016116fd565b90509250929050565b634e487b7160e01b600052601160045260246000fd5b808201808211156104d3576104d36119dc565b818103818111156104d3576104d36119dc565b600181811c90821680611a2c57607f821691505b602082108103611a4c57634e487b7160e01b600052602260045260246000fd5b50919050565b6020808252602d908201527f4552433732313a2063616c6c6572206973206e6f7420746f6b656e206f776e6560408201526c1c881bdc88185c1c1c9bdd9959609a1b606082015260800190565b80820281158282048414176104d3576104d36119dc565b600082611ad357634e487b7160e01b600052601260045260246000fd5b500490565b8054600090600181811c9080831680611af257607f831692505b60208084108203611b1357634e487b7160e01b600052602260045260246000fd5b818015611b275760018114611b3c57611b69565b60ff1986168952841515850289019650611b69565b60008881526020902060005b86811015611b615781548b820152908501908301611b48565b505084890196505b50505050505092915050565b683d913730b6b2911d1160b91b81526000611b936009830189611ad8565b711116113634b1b2b739b2903730b6b2911d1160711b8152611bb86012820189611ad8565b90507f222c226c6963656e73652061677265656d656e742055726c223a2200000000008152611bea601b820188611ad8565b711116113634b1b2b739b2902a3cb832911d1160711b81529050611c116012820187611ad8565b6a111611383934b1b2911d1160a91b81528551909150611c3881600b84016020890161176e565b6c1116113a37b5b2b724a2111d1160991b600b92909101918201528351611c6681601884016020880161176e565b61227d60f01b60189290910191820152601a0198975050505050505050565b60008351611c9781846020880161176e565b835190830190611cab81836020880161176e565b01949350505050565b600060208284031215611cc657600080fd5b815161173481611872565b60208082526032908201527f4552433732313a207472616e7366657220746f206e6f6e20455243373231526560408201527131b2b4bb32b91034b6b83632b6b2b73a32b960711b606082015260800190565b60208082526025908201527f4552433732313a207472616e736665722066726f6d20696e636f72726563742060408201526437bbb732b960d91b606082015260800190565b6001600160a01b0385811682528416602082015260408101839052608060608201819052600090611d9b90830184611792565b9695505050505050565b600060208284031215611db757600080fd5b81516117348161173b56fe4142434445464748494a4b4c4d4e4f505152535455565758595a6162636465666768696a6b6c6d6e6f707172737475767778797a303132333435363738392b2fa2646970667358221220ca2f2b06d970effb2090f4996ef27dc3529bf22260390f4f9c441c0cdfc88d7364736f6c63430008110033",
  "linkReferences": {},
  "deployedLinkReferences": {}
}