{
  "_format": "hh-sol-artifact-1",
  "contractName": "PerpetualLicense",
  "sourceName": "contracts/PerpetualLicense.sol",
  "abi": [
    {
      "inputs": [
        {
          "internalType": "string",
          "name": "companyName",
          "type": "string"
        },
        {
          "internalType": "string",
          "name": "licenseName",
          "type": "string"
        },
        {
          "internalType": "string",
          "name": "licenseAgreementUrl",
          "type": "string"
        },
        {
          "internalType": "uint256",
          "name": "licensePrice",
          "type": "uint256"
        },
        {
          "internalType": "uint96",
          "name": "royaltyPercentage",
          "type": "uint96"
        },
        {
          "internalType": "address",
          "name": "licenseActivationContractAddress",
          "type": "address"
        }
      ],
      "stateMutability": "nonpayable",
      "type": "constructor"
    },
    {
      "inputs": [],
      "name": "ERC721Metadata__URI_QueryFor_NonExistentToken",
      "type": "error"
    },
    {
      "inputs": [],
      "name": "PerpetualLicense__NeedMoreETHSent",
      "type": "error"
    },
    {
      "inputs": [],
      "name": "PerpetualLicense__TransferFailed",
      "type": "error"
    },
    {
      "anonymous": false,
      "inputs": [
        {
          "indexed": true,
          "internalType": "address",
          "name": "owner",
          "type": "address"
        },
        {
          "indexed": true,
          "internalType": "address",
          "name": "approved",
          "type": "address"
        },
        {
          "indexed": true,
          "internalType": "uint256",
          "name": "tokenId",
          "type": "uint256"
        }
      ],
      "name": "Approval",
      "type": "event"
    },
    {
      "anonymous": false,
      "inputs": [
        {
          "indexed": true,
          "internalType": "address",
          "name": "owner",
          "type": "address"
        },
        {
          "indexed": true,
          "internalType": "address",
          "name": "operator",
          "type": "address"
        },
        {
          "indexed": false,
          "internalType": "bool",
          "name": "approved",
          "type": "bool"
        }
      ],
      "name": "ApprovalForAll",
      "type": "event"
    },
    {
      "anonymous": false,
      "inputs": [
        {
          "indexed": true,
          "internalType": "uint256",
          "name": "tokenId",
          "type": "uint256"
        },
        {
          "indexed": false,
          "internalType": "uint256",
          "name": "licensePrice",
          "type": "uint256"
        }
      ],
      "name": "CreatedLicenseToken",
      "type": "event"
    },
    {
      "anonymous": false,
      "inputs": [
        {
          "indexed": true,
          "internalType": "address",
          "name": "previousOwner",
          "type": "address"
        },
        {
          "indexed": true,
          "internalType": "address",
          "name": "newOwner",
          "type": "address"
        }
      ],
      "name": "OwnershipTransferred",
      "type": "event"
    },
    {
      "anonymous": false,
      "inputs": [
        {
          "indexed": true,
          "internalType": "address",
          "name": "from",
          "type": "address"
        },
        {
          "indexed": true,
          "internalType": "address",
          "name": "to",
          "type": "address"
        },
        {
          "indexed": true,
          "internalType": "uint256",
          "name": "tokenId",
          "type": "uint256"
        }
      ],
      "name": "Transfer",
      "type": "event"
    },
    {
      "inputs": [
        {
          "internalType": "address",
          "name": "to",
          "type": "address"
        },
        {
          "internalType": "uint256",
          "name": "tokenId",
          "type": "uint256"
        }
      ],
      "name": "approve",
      "outputs": [],
      "stateMutability": "nonpayable",
      "type": "function"
    },
    {
      "inputs": [
        {
          "internalType": "address",
          "name": "owner",
          "type": "address"
        }
      ],
      "name": "balanceOf",
      "outputs": [
        {
          "internalType": "uint256",
          "name": "",
          "type": "uint256"
        }
      ],
      "stateMutability": "view",
      "type": "function"
    },
    {
      "inputs": [],
      "name": "buyToken",
      "outputs": [],
      "stateMutability": "payable",
      "type": "function"
    },
    {
      "inputs": [
        {
          "internalType": "uint256",
          "name": "tokenId",
          "type": "uint256"
        }
      ],
      "name": "getApproved",
      "outputs": [
        {
          "internalType": "address",
          "name": "",
          "type": "address"
        }
      ],
      "stateMutability": "view",
      "type": "function"
    },
    {
      "inputs": [],
      "name": "getLicensePrice",
      "outputs": [
        {
          "internalType": "uint256",
          "name": "",
          "type": "uint256"
        }
      ],
      "stateMutability": "view",
      "type": "function"
    },
    {
      "inputs": [],
      "name": "getTokenCounter",
      "outputs": [
        {
          "internalType": "uint256",
          "name": "",
          "type": "uint256"
        }
      ],
      "stateMutability": "view",
      "type": "function"
    },
    {
      "inputs": [
        {
          "internalType": "address",
          "name": "owner",
          "type": "address"
        },
        {
          "internalType": "address",
          "name": "operator",
          "type": "address"
        }
      ],
      "name": "isApprovedForAll",
      "outputs": [
        {
          "internalType": "bool",
          "name": "",
          "type": "bool"
        }
      ],
      "stateMutability": "view",
      "type": "function"
    },
    {
      "inputs": [
        {
          "internalType": "address",
          "name": "customer",
          "type": "address"
        }
      ],
      "name": "mintToken",
      "outputs": [],
      "stateMutability": "nonpayable",
      "type": "function"
    },
    {
      "inputs": [],
      "name": "name",
      "outputs": [
        {
          "internalType": "string",
          "name": "",
          "type": "string"
        }
      ],
      "stateMutability": "view",
      "type": "function"
    },
    {
      "inputs": [],
      "name": "owner",
      "outputs": [
        {
          "internalType": "address",
          "name": "",
          "type": "address"
        }
      ],
      "stateMutability": "view",
      "type": "function"
    },
    {
      "inputs": [
        {
          "internalType": "uint256",
          "name": "tokenId",
          "type": "uint256"
        }
      ],
      "name": "ownerOf",
      "outputs": [
        {
          "internalType": "address",
          "name": "",
          "type": "address"
        }
      ],
      "stateMutability": "view",
      "type": "function"
    },
    {
      "inputs": [],
      "name": "renounceOwnership",
      "outputs": [],
      "stateMutability": "nonpayable",
      "type": "function"
    },
    {
      "inputs": [
        {
          "internalType": "uint256",
          "name": "_tokenId",
          "type": "uint256"
        },
        {
          "internalType": "uint256",
          "name": "_salePrice",
          "type": "uint256"
        }
      ],
      "name": "royaltyInfo",
      "outputs": [
        {
          "internalType": "address",
          "name": "",
          "type": "address"
        },
        {
          "internalType": "uint256",
          "name": "",
          "type": "uint256"
        }
      ],
      "stateMutability": "view",
      "type": "function"
    },
    {
      "inputs": [
        {
          "internalType": "address",
          "name": "from",
          "type": "address"
        },
        {
          "internalType": "address",
          "name": "to",
          "type": "address"
        },
        {
          "internalType": "uint256",
          "name": "tokenId",
          "type": "uint256"
        }
      ],
      "name": "safeTransferFrom",
      "outputs": [],
      "stateMutability": "nonpayable",
      "type": "function"
    },
    {
      "inputs": [
        {
          "internalType": "address",
          "name": "from",
          "type": "address"
        },
        {
          "internalType": "address",
          "name": "to",
          "type": "address"
        },
        {
          "internalType": "uint256",
          "name": "tokenId",
          "type": "uint256"
        },
        {
          "internalType": "bytes",
          "name": "data",
          "type": "bytes"
        }
      ],
      "name": "safeTransferFrom",
      "outputs": [],
      "stateMutability": "nonpayable",
      "type": "function"
    },
    {
      "inputs": [
        {
          "internalType": "address",
          "name": "operator",
          "type": "address"
        },
        {
          "internalType": "bool",
          "name": "approved",
          "type": "bool"
        }
      ],
      "name": "setApprovalForAll",
      "outputs": [],
      "stateMutability": "nonpayable",
      "type": "function"
    },
    {
      "inputs": [
        {
          "internalType": "bytes4",
          "name": "interfaceId",
          "type": "bytes4"
        }
      ],
      "name": "supportsInterface",
      "outputs": [
        {
          "internalType": "bool",
          "name": "",
          "type": "bool"
        }
      ],
      "stateMutability": "view",
      "type": "function"
    },
    {
      "inputs": [],
      "name": "symbol",
      "outputs": [
        {
          "internalType": "string",
          "name": "",
          "type": "string"
        }
      ],
      "stateMutability": "view",
      "type": "function"
    },
    {
      "inputs": [
        {
          "internalType": "uint256",
          "name": "tokenId",
          "type": "uint256"
        }
      ],
      "name": "tokenURI",
      "outputs": [
        {
          "internalType": "string",
          "name": "",
          "type": "string"
        }
      ],
      "stateMutability": "view",
      "type": "function"
    },
    {
      "inputs": [
        {
          "internalType": "address",
          "name": "from",
          "type": "address"
        },
        {
          "internalType": "address",
          "name": "to",
          "type": "address"
        },
        {
          "internalType": "uint256",
          "name": "tokenId",
          "type": "uint256"
        }
      ],
      "name": "transferFrom",
      "outputs": [],
      "stateMutability": "nonpayable",
      "type": "function"
    },
    {
      "inputs": [
        {
          "internalType": "address",
          "name": "newOwner",
          "type": "address"
        }
      ],
      "name": "transferOwnership",
      "outputs": [],
      "stateMutability": "nonpayable",
      "type": "function"
    },
    {
      "inputs": [
        {
          "internalType": "uint256",
          "name": "newPrice",
          "type": "uint256"
        }
      ],
      "name": "updateLicensePrice",
      "outputs": [],
      "stateMutability": "nonpayable",
      "type": "function"
    },
    {
      "inputs": [],
      "name": "withdraw",
      "outputs": [],
      "stateMutability": "nonpayable",
      "type": "function"
    }
  ],
  "bytecode": "0x60806040523480156200001157600080fd5b50604051620024203803806200242083398101604081905262000034916200039e565b6040518060400160405280601081526020016f536f667477617265204c6963656e736560801b8152506040518060400160405280600381526020016253484b60e81b81525081600290816200008a9190620004fb565b506003620000998282620004fb565b505050620000b6620000b06200016160201b60201c565b62000165565b6000600955600a839055600b620000ce8782620004fb565b50600d620000dd8682620004fb565b50600e620000ec8582620004fb565b5060408051808201909152600981526814195c9c195d1d585b60ba1b6020820152600c906200011c9082620004fb565b5062000135336200012f846064620005c7565b620001b7565b600f80546001600160a01b0319166001600160a01b039290921691909117905550620006019350505050565b3390565b600880546001600160a01b038381166001600160a01b0319831681179093556040519116919082907f8be0079c531659141344cd1fd0a4f28419497f9722a3daafe3b4186f6b6457e090600090a35050565b6127106001600160601b03821611156200022b5760405162461bcd60e51b815260206004820152602a60248201527f455243323938313a20726f79616c7479206665652077696c6c206578636565646044820152692073616c65507269636560b01b60648201526084015b60405180910390fd5b6001600160a01b038216620002835760405162461bcd60e51b815260206004820152601960248201527f455243323938313a20696e76616c696420726563656976657200000000000000604482015260640162000222565b604080518082019091526001600160a01b039092168083526001600160601b039091166020909201829052600160a01b90910217600055565b634e487b7160e01b600052604160045260246000fd5b600082601f830112620002e457600080fd5b81516001600160401b0380821115620003015762000301620002bc565b604051601f8301601f19908116603f011681019082821181831017156200032c576200032c620002bc565b816040528381526020925086838588010111156200034957600080fd5b600091505b838210156200036d57858201830151818301840152908201906200034e565b600093810190920192909252949350505050565b80516001600160a01b03811681146200039957600080fd5b919050565b60008060008060008060c08789031215620003b857600080fd5b86516001600160401b0380821115620003d057600080fd5b620003de8a838b01620002d2565b97506020890151915080821115620003f557600080fd5b620004038a838b01620002d2565b965060408901519150808211156200041a57600080fd5b506200042989828a01620002d2565b606089015160808a0151919650945090506001600160601b03811681146200045057600080fd5b91506200046060a0880162000381565b90509295509295509295565b600181811c908216806200048157607f821691505b602082108103620004a257634e487b7160e01b600052602260045260246000fd5b50919050565b601f821115620004f657600081815260208120601f850160051c81016020861015620004d15750805b601f850160051c820191505b81811015620004f257828155600101620004dd565b5050505b505050565b81516001600160401b03811115620005175762000517620002bc565b6200052f816200052884546200046c565b84620004a8565b602080601f8311600181146200056757600084156200054e5750858301515b600019600386901b1c1916600185901b178555620004f2565b600085815260208120601f198616915b82811015620005985788860151825594840194600190910190840162000577565b5085821015620005b75787850151600019600388901b60f8161c191681555b5050505050600190811b01905550565b6001600160601b03818116838216028082169190828114620005f957634e487b7160e01b600052601160045260246000fd5b505092915050565b611e0f80620006116000396000f3fe6080604052600436106101405760003560e01c80636e02007d116100b6578063a22cb4651161006f578063a22cb46514610386578063a4821719146103a6578063b88d4fde146103ae578063c87b56dd146103ce578063e985e9c5146103ee578063f2fde38b1461040e57600080fd5b80636e02007d146102e957806370a08231146102fe578063715018a61461031e5780637b5321a4146103335780638da5cb5b1461035357806395d89b411461037157600080fd5b80631af62808116101085780631af628081461021657806323b872dd146102355780632a55205a146102555780633ccfd60b1461029457806342842e0e146102a95780636352211e146102c957600080fd5b806301173a741461014557806301ffc9a71461016757806306fdde031461019c578063081812fc146101be578063095ea7b3146101f6575b600080fd5b34801561015157600080fd5b506101656101603660046116f0565b61042e565b005b34801561017357600080fd5b50610187610182366004611728565b61049f565b60405190151581526020015b60405180910390f35b3480156101a857600080fd5b506101b16104b0565b6040516101939190611795565b3480156101ca57600080fd5b506101de6101d93660046117a8565b610542565b6040516001600160a01b039091168152602001610193565b34801561020257600080fd5b506101656102113660046117c1565b610569565b34801561022257600080fd5b50600a545b604051908152602001610193565b34801561024157600080fd5b506101656102503660046117eb565b610683565b34801561026157600080fd5b50610275610270366004611827565b6106b4565b604080516001600160a01b039093168352602083019190915201610193565b3480156102a057600080fd5b50610165610760565b3480156102b557600080fd5b506101656102c43660046117eb565b6107d7565b3480156102d557600080fd5b506101de6102e43660046117a8565b6107f2565b3480156102f557600080fd5b50600954610227565b34801561030a57600080fd5b506102276103193660046116f0565b610852565b34801561032a57600080fd5b506101656108d8565b34801561033f57600080fd5b5061016561034e3660046117a8565b6108ec565b34801561035f57600080fd5b506008546001600160a01b03166101de565b34801561037d57600080fd5b506101b1610949565b34801561039257600080fd5b506101656103a1366004611857565b610958565b610165610963565b3480156103ba57600080fd5b506101656103c93660046118a4565b6109ee565b3480156103da57600080fd5b506101b16103e93660046117a8565b610a26565b3480156103fa57600080fd5b50610187610409366004611980565b610b01565b34801561041a57600080fd5b506101656104293660046116f0565b610b2f565b610436610ba8565b61044281600954610c02565b6009546104509060016119c9565b6009819055610461906001906119dc565b7fb222edcd3d73c8021758828e81f1bccade43b6e354296c382fcb7ceb3fbbc5d7600a5460405161049491815260200190565b60405180910390a250565b60006104aa82610c1c565b92915050565b6060600280546104bf906119ef565b80601f01602080910402602001604051908101604052809291908181526020018280546104eb906119ef565b80156105385780601f1061050d57610100808354040283529160200191610538565b820191906000526020600020905b81548152906001019060200180831161051b57829003601f168201915b5050505050905090565b600061054d82610c5c565b506000908152600660205260409020546001600160a01b031690565b6000610574826107f2565b9050806001600160a01b0316836001600160a01b0316036105e65760405162461bcd60e51b815260206004820152602160248201527f4552433732313a20617070726f76616c20746f2063757272656e74206f776e656044820152603960f91b60648201526084015b60405180910390fd5b336001600160a01b038216148061060257506106028133610b01565b6106745760405162461bcd60e51b815260206004820152603d60248201527f4552433732313a20617070726f76652063616c6c6572206973206e6f7420746f60448201527f6b656e206f776e6572206f7220617070726f76656420666f7220616c6c00000060648201526084016105dd565b61067e8383610cbb565b505050565b61068d3382610d29565b6106a95760405162461bcd60e51b81526004016105dd90611a29565b61067e838383610d88565b60008281526001602090815260408083208151808301909252546001600160a01b038116808352600160a01b9091046001600160601b03169282019290925282916107295750604080518082019091526000546001600160a01b0381168252600160a01b90046001600160601b031660208201525b602081015160009061271090610748906001600160601b031687611a76565b6107529190611a8d565b915196919550909350505050565b610768610ba8565b6040514790600090339083908381818185875af1925050503d80600081146107ac576040519150601f19603f3d011682016040523d82523d6000602084013e6107b1565b606091505b50509050806107d3576040516307858ed560e11b815260040160405180910390fd5b5050565b61067e838383604051806020016040528060008152506109ee565b6000818152600460205260408120546001600160a01b0316806104aa5760405162461bcd60e51b8152602060048201526018602482015277115490cdcc8c4e881a5b9d985b1a59081d1bdad95b88125160421b60448201526064016105dd565b60006001600160a01b0382166108bc5760405162461bcd60e51b815260206004820152602960248201527f4552433732313a2061646472657373207a65726f206973206e6f7420612076616044820152683634b21037bbb732b960b91b60648201526084016105dd565b506001600160a01b031660009081526005602052604090205490565b6108e0610ba8565b6108ea6000610e59565b565b6108f4610ba8565b600081116109445760405162461bcd60e51b815260206004820152601f60248201527f5072696365206d7573742062652067726561746572207468616e207a65726f0060448201526064016105dd565b600a55565b6060600380546104bf906119ef565b6107d3338383610eab565b600a5434101561098657604051638ed9a18d60e01b815260040160405180910390fd5b61099233600954610c02565b6009546109a09060016119c9565b60098190556109b1906001906119dc565b7fb222edcd3d73c8021758828e81f1bccade43b6e354296c382fcb7ceb3fbbc5d7600a546040516109e491815260200190565b60405180910390a2565b6109f83383610d29565b610a145760405162461bcd60e51b81526004016105dd90611a29565b610a2084848484610f79565b50505050565b6000818152600460205260409020546060906001600160a01b0316610a5e576040516336faf6d760e11b815260040160405180910390fd5b60408051808201909152601d81527f646174613a6170706c69636174696f6e2f6a736f6e3b6261736536342c0000006020820152610ada600b600d600e600c610aa8600a54610fac565b610ab189610fac565b604051602001610ac696959493929190611b4c565b60405160208183030381529060405261103f565b604051602001610aeb929190611c5c565b6040516020818303038152906040529050919050565b6001600160a01b03918216600090815260076020908152604080832093909416825291909152205460ff1690565b610b37610ba8565b6001600160a01b038116610b9c5760405162461bcd60e51b815260206004820152602660248201527f4f776e61626c653a206e6577206f776e657220697320746865207a65726f206160448201526564647265737360d01b60648201526084016105dd565b610ba581610e59565b50565b6008546001600160a01b031633146108ea5760405162461bcd60e51b815260206004820181905260248201527f4f776e61626c653a2063616c6c6572206973206e6f7420746865206f776e657260448201526064016105dd565b6107d38282604051806020016040528060008152506111a4565b60006001600160e01b031982166380ac58cd60e01b1480610c4d57506001600160e01b03198216635b5e139f60e01b145b806104aa57506104aa826111d7565b6000818152600460205260409020546001600160a01b0316610ba55760405162461bcd60e51b8152602060048201526018602482015277115490cdcc8c4e881a5b9d985b1a59081d1bdad95b88125160421b60448201526064016105dd565b600081815260066020526040902080546001600160a01b0319166001600160a01b0384169081179091558190610cf0826107f2565b6001600160a01b03167f8c5be1e5ebec7d5bd14f71427d1e84f3dd0314c0f7b2291e5b200ac8c7c3b92560405160405180910390a45050565b600080610d35836107f2565b9050806001600160a01b0316846001600160a01b03161480610d5c5750610d5c8185610b01565b80610d805750836001600160a01b0316610d7584610542565b6001600160a01b0316145b949350505050565b600f5460405163176e8a2f60e01b8152600481018390526001600160a01b039091169063176e8a2f90602401602060405180830381865afa158015610dd1573d6000803e3d6000fd5b505050506040513d601f19601f82011682018060405250810190610df59190611c8b565b15610e4e5760405162461bcd60e51b8152602060048201526024808201527f43616e6e6f74207472616e7366657220616e20616374697661746564206c6963604482015263656e736560e01b60648201526084016105dd565b61067e83838361120c565b600880546001600160a01b038381166001600160a01b0319831681179093556040519116919082907f8be0079c531659141344cd1fd0a4f28419497f9722a3daafe3b4186f6b6457e090600090a35050565b816001600160a01b0316836001600160a01b031603610f0c5760405162461bcd60e51b815260206004820152601960248201527f4552433732313a20617070726f766520746f2063616c6c65720000000000000060448201526064016105dd565b6001600160a01b03838116600081815260076020908152604080832094871680845294825291829020805460ff191686151590811790915591519182527f17307eab39ab6107e8899845ad3d59bd9653f200f220920489ca2b5937696c31910160405180910390a3505050565b610f84848484610d88565b610f9084848484611370565b610a205760405162461bcd60e51b81526004016105dd90611ca8565b60606000610fb983611471565b600101905060008167ffffffffffffffff811115610fd957610fd961188e565b6040519080825280601f01601f191660200182016040528015611003576020820181803683370190505b5090508181016020015b600019016f181899199a1a9b1b9c1cb0b131b232b360811b600a86061a8153600a850494508461100d57509392505050565b6060815160000361105e57505060408051602081019091526000815290565b6000604051806060016040528060408152602001611d9a604091399050600060038451600261108d91906119c9565b6110979190611a8d565b6110a2906004611a76565b905060006110b18260206119c9565b67ffffffffffffffff8111156110c9576110c961188e565b6040519080825280601f01601f1916602001820160405280156110f3576020820181803683370190505b509050818152600183018586518101602084015b8183101561115f576003830192508251603f8160121c168501518253600182019150603f81600c1c168501518253600182019150603f8160061c168501518253600182019150603f8116850151825350600101611107565b600389510660018114611179576002811461118a57611196565b613d3d60f01b600119830152611196565b603d60f81b6000198301525b509398975050505050505050565b6111ae8383611549565b6111bb6000848484611370565b61067e5760405162461bcd60e51b81526004016105dd90611ca8565b60006001600160e01b0319821663152a902d60e11b14806104aa57506301ffc9a760e01b6001600160e01b03198316146104aa565b826001600160a01b031661121f826107f2565b6001600160a01b0316146112455760405162461bcd60e51b81526004016105dd90611cfa565b6001600160a01b0382166112a75760405162461bcd60e51b8152602060048201526024808201527f4552433732313a207472616e7366657220746f20746865207a65726f206164646044820152637265737360e01b60648201526084016105dd565b826001600160a01b03166112ba826107f2565b6001600160a01b0316146112e05760405162461bcd60e51b81526004016105dd90611cfa565b600081815260066020908152604080832080546001600160a01b03199081169091556001600160a01b0387811680865260058552838620805460001901905590871680865283862080546001019055868652600490945282852080549092168417909155905184937fddf252ad1be2c89b69c2b068fc378daa952ba7f163c4a11628f55a4df523b3ef91a4505050565b60006001600160a01b0384163b1561146657604051630a85bd0160e11b81526001600160a01b0385169063150b7a02906113b4903390899088908890600401611d3f565b6020604051808303816000875af19250505080156113ef575060408051601f3d908101601f191682019092526113ec91810190611d7c565b60015b61144c573d80801561141d576040519150601f19603f3d011682016040523d82523d6000602084013e611422565b606091505b5080516000036114445760405162461bcd60e51b81526004016105dd90611ca8565b805181602001fd5b6001600160e01b031916630a85bd0160e11b149050610d80565b506001949350505050565b60008072184f03e93ff9f4daa797ed6e38ed64bf6a1f0160401b83106114b05772184f03e93ff9f4daa797ed6e38ed64bf6a1f0160401b830492506040015b6d04ee2d6d415b85acef810000000083106114dc576d04ee2d6d415b85acef8100000000830492506020015b662386f26fc1000083106114fa57662386f26fc10000830492506010015b6305f5e1008310611512576305f5e100830492506008015b612710831061152657612710830492506004015b60648310611538576064830492506002015b600a83106104aa5760010192915050565b6001600160a01b03821661159f5760405162461bcd60e51b815260206004820181905260248201527f4552433732313a206d696e7420746f20746865207a65726f206164647265737360448201526064016105dd565b6000818152600460205260409020546001600160a01b0316156116045760405162461bcd60e51b815260206004820152601c60248201527f4552433732313a20746f6b656e20616c7265616479206d696e7465640000000060448201526064016105dd565b6000818152600460205260409020546001600160a01b0316156116695760405162461bcd60e51b815260206004820152601c60248201527f4552433732313a20746f6b656e20616c7265616479206d696e7465640000000060448201526064016105dd565b6001600160a01b038216600081815260056020908152604080832080546001019055848352600490915280822080546001600160a01b0319168417905551839291907fddf252ad1be2c89b69c2b068fc378daa952ba7f163c4a11628f55a4df523b3ef908290a45050565b80356001600160a01b03811681146116eb57600080fd5b919050565b60006020828403121561170257600080fd5b61170b826116d4565b9392505050565b6001600160e01b031981168114610ba557600080fd5b60006020828403121561173a57600080fd5b813561170b81611712565b60005b83811015611760578181015183820152602001611748565b50506000910152565b60008151808452611781816020860160208601611745565b601f01601f19169290920160200192915050565b60208152600061170b6020830184611769565b6000602082840312156117ba57600080fd5b5035919050565b600080604083850312156117d457600080fd5b6117dd836116d4565b946020939093013593505050565b60008060006060848603121561180057600080fd5b611809846116d4565b9250611817602085016116d4565b9150604084013590509250925092565b6000806040838503121561183a57600080fd5b50508035926020909101359150565b8015158114610ba557600080fd5b6000806040838503121561186a57600080fd5b611873836116d4565b9150602083013561188381611849565b809150509250929050565b634e487b7160e01b600052604160045260246000fd5b600080600080608085870312156118ba57600080fd5b6118c3856116d4565b93506118d1602086016116d4565b925060408501359150606085013567ffffffffffffffff808211156118f557600080fd5b818701915087601f83011261190957600080fd5b81358181111561191b5761191b61188e565b604051601f8201601f19908116603f011681019083821181831017156119435761194361188e565b816040528281528a602084870101111561195c57600080fd5b82602086016020830137600060208483010152809550505050505092959194509250565b6000806040838503121561199357600080fd5b61199c836116d4565b91506119aa602084016116d4565b90509250929050565b634e487b7160e01b600052601160045260246000fd5b808201808211156104aa576104aa6119b3565b818103818111156104aa576104aa6119b3565b600181811c90821680611a0357607f821691505b602082108103611a2357634e487b7160e01b600052602260045260246000fd5b50919050565b6020808252602d908201527f4552433732313a2063616c6c6572206973206e6f7420746f6b656e206f776e6560408201526c1c881bdc88185c1c1c9bdd9959609a1b606082015260800190565b80820281158282048414176104aa576104aa6119b3565b600082611aaa57634e487b7160e01b600052601260045260246000fd5b500490565b8054600090600181811c9080831680611ac957607f831692505b60208084108203611aea57634e487b7160e01b600052602260045260246000fd5b818015611afe5760018114611b1357611b40565b60ff1986168952841515850289019650611b40565b60008881526020902060005b86811015611b385781548b820152908501908301611b1f565b505084890196505b50505050505092915050565b683d913730b6b2911d1160b91b81526000611b6a6009830189611aaf565b711116113634b1b2b739b2903730b6b2911d1160711b8152611b8f6012820189611aaf565b90507f222c226c6963656e73652061677265656d656e742055726c223a2200000000008152611bc1601b820188611aaf565b711116113634b1b2b739b2902a3cb832911d1160711b81529050611be86012820187611aaf565b6a111611383934b1b2911d1160a91b81528551909150611c0f81600b840160208901611745565b6c1116113a37b5b2b724a2111d1160991b600b92909101918201528351611c3d816018840160208801611745565b61227d60f01b60189290910191820152601a0198975050505050505050565b60008351611c6e818460208801611745565b835190830190611c82818360208801611745565b01949350505050565b600060208284031215611c9d57600080fd5b815161170b81611849565b60208082526032908201527f4552433732313a207472616e7366657220746f206e6f6e20455243373231526560408201527131b2b4bb32b91034b6b83632b6b2b73a32b960711b606082015260800190565b60208082526025908201527f4552433732313a207472616e736665722066726f6d20696e636f72726563742060408201526437bbb732b960d91b606082015260800190565b6001600160a01b0385811682528416602082015260408101839052608060608201819052600090611d7290830184611769565b9695505050505050565b600060208284031215611d8e57600080fd5b815161170b8161171256fe4142434445464748494a4b4c4d4e4f505152535455565758595a6162636465666768696a6b6c6d6e6f707172737475767778797a303132333435363738392b2fa2646970667358221220ed3a73c07525bffd76f45467c0d821f4f2c5cfc315adc21ddc0199fdab0a9e2e64736f6c63430008110033",
  "linkReferences": {},
  "deployedLinkReferences": {}
}